:020000040800F2
:10000000A89800204501000839AA0008ADA40008FE
:1000100035AA0008492D0008E9E8000800000000A2
:10002000000000000000000000000000EBBF00081E
:10003000AD34000800000000B701000803D100083B
:100040005F0100085F0100085F010008DDBA0008D9
:100050005F0100085F0100085F0100085F01000800
:100060005F0100085F0100085F0100085F010008F0
:100070005F0100085F0100085F0100085F010008E0
:100080005F0100085F0100085F0100085F010008D0
:100090005F0100085F0100085F01000801380008E7
:1000A0005F0100085F0100085F0100085F010008B0
:1000B0005F01000875D100085F0100085F010008BA
:1000C0005F0100085F0100085F0100085F01000890
:1000D0005F010008ADE0000835E1000875E10008A7
:1000E0005F0100085F0100085F0100085F01000870
:1000F0005F0100085F0100085F0100085F01000860
:100100005F0100085F0100085F0100085F0100084F
:100110006DE000085F0100085F0100085F01000852
:100120005F0100085F0100085F0100085F0100082F
:10013000DFF80CD002F032FD00480047E1F0000883
:10014000A89800200648804706480047FEE7FEE7DB
:10015000FEE7FEE7FEE7FEE7FEE7FEE7FEE7FEE777
:1001600015D1000831010008EFF3108072B6704716
:1001700080F310887047204C204D25604FF000041C
:1001800084F309881E4C4FF0010525701D4C4FF07B
:100190008055256062B6FEE730B41A4C4FF08055AA
:1001A000256030BC704730B4164C4FF08055256048
:1001B00030BC704700BF72B6EFF3098028B1203819
:1001C00080E8F00F10490968086000B50F488047C3
:1001D0005DF804EB0E480F490A7802700A480E4990
:1001E0000A680260106890E8F00F203080F30988F8
:1001F0004EF0040E62B6704720ED00E00000FFFFF5
:10020000B202002004ED00E0B8020020E9AF0008CF
:10021000A7020020A8020020C00200202020704772
:10022000FE4902780A7042784A7082788A70C078F3
:10023000C8700868704770B50546062002F0E8FDF2
:10024000FF2818D0000616D5F44CE570042002F003
:10025000DFFD8006FAD409E0042002F0D9FD800613
:10026000FAD5042002F0D4FD8006FAD4E078411ECD
:10027000E1700028F0D170BD10B5E84C0120543C6D
:1002800060700020A0720146082002F00CFE607A27
:10029000C021002800D18021062002F004FE822027
:1002A00010BDDE4910B55439487A092401280BD015
:1002B00002280BD003280ED000204872092002F03B
:1002C000A7FD2021084010BD022000E0032002F01D
:1002D0009FFD204010BD032002F09AFD90210840B0
:1002E000000910BDF8B5CD4D002620272C46EE7034
:1002F000543C26700EF094FF092002F089FDC007DF
:1003000039D01121092002F0CEFD0A2002F080FD33
:100310006179002907D04107490F032907D1C00699
:1003200017D5304677E00107090F0229F9D00107F8
:10033000090F0A2902D12179090613D4810703D0B4
:100340000007000F203066E0092002F061FD800701
:1003500011D4E878401CC0B2E87021790907090F70
:10036000884206D80E2002F053FD082101430E20DA
:1003700024E038464FE0FF2004E0042002F048FD6E
:100380002078401E207020780028F6D1092002F045
:100390003FFDE870800734D5FFF783FF09280BD0B5
:1003A00001206070A6721321092002F07CFD607AA2
:1003B000C021002806D104E00221092002F073FDCB
:1003C00097E78021062002F06EFDFFF76AFF002804
:1003D00015D002206070E878617AC009C001012957
:1003E00007D9022002F014FD617A032900D01027FA
:1003F0003840002801D015200DE013200BE0162016
:1004000009E01F21092002F04EFDE878000701D520
:10041000062000E005202070F8BD80490020C04380
:100420001839086000203C3948737047F8B501203E
:10043000FFF701FF08210B2002F035FDD0210D2030
:1004400002F031FD08210E2002F02DFD734C002634
:10045000543C6671FFF746FF207800281FD1012029
:100460006071462002F0D4FC00283ED0FFF7D5FF93
:1004700008270120FFF7DFFE90210D2002F013FD79
:100480000E2002F0C5FC80214840384301460E2072
:1004900002F009FDFFF726FF2078002801D0207820
:1004A000F8BD0B2002F0B4FC2070472002F0B0FC35
:1004B0005A4DE870616B42182178C02002F07CFC34
:1004C000E87821784018C1B2E970472002F0EBFCCF
:1004D000462002F09DFCE978884205D92078400743
:1004E000C7D017202070F8BD66710120FFF7A3FE6A
:1004F00000210B2002F0D7FC61790920002900D1EE
:10050000012001010D2002F0CEFCC8210E2002F0D6
:10051000CAFCFFF7E7FEF8BD70B5062002F078FCD4
:100520004021084001468031062002F0BCFC092031
:1005300002F06EFC800709D5FFF7B3FE092801D051
:10054000FFF79AFE1321092002F0ADFCFFF7A9FE88
:10055000002865D0314C543C6078002502260228E2
:1005600002D26670A57256E0A07A002853D0607A55
:10057000801CC1B2082002F096FCE07A002823D04B
:1005800001F067FC207800280AD02078162847D090
:100590002078800602D52078800741D0667028E058
:1005A000606B8078C00704D0667001F044FCFFF7F0
:1005B0003DFF606B0078C007F0D0E07A1030C1B228
:1005C000082002F070FC26E0C0B2401CE07201F08E
:1005D00040FC207800280FD02078162820D02078E2
:1005E000800602D5207880071AD0E07AA17A884266
:1005F000EAD3E572842070BD606B8078C00703D0B9
:1006000001F019FCFFF712FF606B0178C907ECD00D
:1006100040788007E9D4002070BD01E02803002065
:10062000FFF72AFEF8E710B5FF4A5378834200D35C
:1006300051705078884201D1002010BD01205070C7
:10064000FFF76AFF0028F8D1832010BD70B5F64C83
:10065000002565702046403005705521802002F04D
:1006600022FCAA21812002F01EFC802002F0D0FB97
:10067000552804D1812002F0CBFBAA2801D081208B
:10068000CAE70021062002F00EFC00210E2002F035
:100690000AFC85202071012025724002E0826572EB
:1006A000A5711F21092002F0FEFB072002F0B0FB1C
:1006B00001090901491C02200143072002F0F3FB54
:1006C0004021052002F0EFFBFFF7D6FD0020A3E755
:1006D00010B5D548407A02280BD0032810D002204C
:1006E00002F096FB01090901491C022002F0DBFB24
:1006F00010BD032002F08CFB01090901491C05E033
:10070000032002F085FB0107090F10310320EDE7FC
:1007100010B5C54CC5A15434E070082002F0B0FB00
:10072000E078C14A0109092902D0012908D00EE068
:100730000007000F8030E07090794006400E05E021
:100740000007000FE0709079BF2108409071E178B8
:10075000442002F0A8FBFFF769FE10BD70B5B24C53
:10076000207825465435A8700220FFF764FDFFF776
:10077000D3FE20702078002801D020784CE7ADA16E
:10078000082002F07DFB217C442002F08CFBFFF767
:100790004DFE2078162803D02078002802D007E0EC
:1007A000822039E7607CFFF7B3FFA07CFFF7B0FF42
:1007B0000220FFF740FDA87820702DE710B59A4C75
:1007C0000D20617C02F06FFBA1790E2002F06BFB23
:1007D0000120607110BDF8B50027984E924C7770DB
:1007E0007780E079254670715435AF7094A104206C
:1007F00002F046FB914A1221482002F017FB1F210C
:100800000B2002F050FBA17C0D2002F04CFBA179E3
:100810000E2002F048FB6771FFF764FD2078162870
:1008200006D0207800280AD0A878002854D101E00A
:100830008220F8BDFFF792FF0120A870D6E7A079CB
:1008400040214840A071307800282BD0FFF7B6FF38
:10085000FFF748FD2078002806D021782E293BD1CB
:10086000607CFFF755FF1DE0A179802041402746BD
:10087000A1710B2002F0CCFAE8704F2002F0C8FA08
:10088000032804D1532002F0C3FA122806D0FFF740
:10089000C4FDE978C0207A6B02F08EFA3078E978EE
:1008A000401A3070FFF78AFFFFF71CFD2078002800
:1008B00012D1A07980214840A071CC2002F0A8FA82
:1008C000E8700B2002F0A4FA01461F200D2902D186
:1008D000E978022903D32070FFF740FFF8BD002913
:1008E00001D02070F8BD0020F8BD544A00291170D5
:1008F00001D0802300E00023137106239371D0718F
:100900000020107250729072D172107350739073F5
:10091000D0731074704770B50220FFF78CFC112162
:10092000092002F0C0FAFFF7BCFC00281DD03E4CA5
:100930002078162819D06078012816D0607803280E
:100940000ED3207825465435687012210320FFF716
:10095000CCFFFFF740FF687820700220FFF76BFCA8
:100960002078002804D0207856E6FFF785FC53E66F
:10097000102051E62C484178122905D041781029E1
:1009800001D91021417070470321FBE7F8B52B4BCB
:100990000024254F1C70FE7C0D46083EB5405D705E
:1009A0005C8025462A2A00D080251D71FD795D7165
:1009B0000A259D71DA711C72C2785A7282789A7215
:1009C0004278DA72007818735C739C73D9731C7464
:1009D0001BA1042002F054FA184A1221482002F008
:1009E00025FA1F210B2002F05EFAB97C0D2002F0DF
:1009F0005AFAB9790E2002F056FA7C71FFF772FCB0
:100A0000F8BDF8B5084E084C3C363068A16B8842FA
:100A10007DD0002020728027034828220121383011
:100A2000FFF7B4FF20780FE0D4020020020100009D
:100A30000000000021FF000000000000F8860020F8
:100A40005553424300000000002870D1CC210620FD
:100A500002F029FA617C0D2002F025FAA1790E201E
:100A600002F021FA01206071A07940214840A07174
:100A7000606B3060E17C04200839FA4D8840687072
:100A8000FFF730FC2078002804D0C021062002F0B7
:100A90000AFA2DE0A1797940A1716878012802D085
:100AA0000E2002F000FAA279C0203168120600D4AC
:100AB000802002F097F930606878401E0006000E32
:100AC0006870DDD1C021062002F0EDF9A1790E2079
:100AD00002F0E9F9A06B3060A0793D467840A07142
:100AE000FFF700FC2078002812D0A0796840A071A0
:100AF00020782E281BD1207A2546002817D1687C23
:100B0000FFF706FE01202072FFF758FEE2E729E01A
:100B10000B2002F07DF90D2809D1CC2002F078F9E4
:100B2000002815D0CC2002F073F9012804D02078D9
:100B300016280CD0FFF712FE207A052809D20328C8
:100B400001D3FFF7E8FE207A401C207264E7822080
:100B5000F8BDFFF762FC1F202070FFF70BFFFFF7C7
:100B6000DAFEF8BD0020F8BDF8B5BE4E0020543EB8
:100B7000354630723C35BB482A2201211C38FFF72C
:100B800005FF3078002876D1C821062002F08BF9C5
:100B9000716B29604027B2793846520600D4802014
:100BA00002F059F9286040210B2002F07CF9B1795C
:100BB0000E207940B17102F076F9F17C04200839F9
:100BC000A84C88406070C0B2012808D0B27929686A
:100BD0003846520600D4802002F03DF92860FFF725
:100BE00081FB3078002810D0C021062002F05BF98C
:100BF000307834462E284ED1207A00284BD1A07C64
:100C0000FFF786FD0120207212E0B1797940B171C1
:100C10006078012802D00E2002F045F96078401E6D
:100C20000006000E6070CED1C021062002F03BF914
:100C300080270124717C0D2002F035F9B1790E2056
:100C400002F031F97471B06B2860B0797840B071FE
:100C5000FFF748FB307800280ED0B0797840B071AB
:100C600030782E2817D1307A002814D1707CFFF705
:100C70004FFD3472DEE70EE00B2002F0C9F80D28BC
:100C800009D1CC2002F0C4F8002814D0CC2002F006
:100C9000BFF8012804D03078162810D0FFF75EFD89
:100CA000307A05280DD2032801D3FFF734FE307ABD
:100CB000401C30725FE70EF0ABFA0020F8BD8220D6
:100CC000F8BDFFF7AAFB1F203070FFF753FEFFF7B8
:100CD00022FEF8BDF8B50F20624C0A25624E607006
:100CE000002708212520FFF700FEB571F772FFF7F6
:100CF00072FD2070002816D0162812D0152810D0AA
:100D000013280ED001F0B5F861784020090700D40F
:100D1000C820FFF790FA6078401E0006000E607051
:100D2000DFD12078F8BD4F495439486B80790428C9
:100D30000BD008280BD010280BD00920C874CA7C0F
:100D400001209040C8820020F8BDCD74F7E70B2049
:100D5000F4E70C20F2E7F8B5424C543C60780228E6
:100D600001D90220607000273E4DFFF7D5FB002817
:100D700076D1A07A002879D1072002F049F801093C
:100D800068700901072002F08EF8607AC0210028FF
:100D900000D18021062002F086F800210E2002F00A
:100DA00082F80120FFF747FA607A002827D002284E
:100DB00016D003281BD0022002F02AF801090901ED
:100DC000891C022002F06FF80120FFF734FAFFF7C8
:100DD00068FA002816D0FFF764FA002812D014E051
:100DE000032002F015F801090901891C05E0032020
:100DF00002F00EF80107090F20310320E2E78121FC
:100E00000620DFE71420FFF716FA607A002805D0E5
:100E1000FFF75EFC0120FFF70EFA03E080210620B9
:100E200002F041F8C021062002F03DF88020A870B1
:100E3000FFF74EFC0220FFF7FEF91F21092002F008
:100E400032F86978072002F02EF8FFF765FB0028DA
:100E500036D0A878401E0006000EA870E8D1822087
:100E6000F8BD03E028030020F88600200A20FFF7E1
:100E7000E2F9607A801CC1B2082002F014F800F098
:100E8000DAFF0321412002F00EF80421422002F093
:100E90000AF8FFF7CBFA2078002808D000F0CBFF43
:100EA0000121422001F0FFFFFFF7C0FAA9E000F0A6
:100EB000D0FF2078002803D1606B0078C006F6D4FC
:100EC0004B20FFF7B8F90021082001F0ECFFFFA14B
:100ED000082001F0D5FFFFF7A9FA20780028DDD11E
:100EE000FCA1082001F0CCFF607A002804D0801C0F
:100EF000C1B2422001F0D7FFA07A002806D0E07AE4
:100F00004106490E1031422001F0CDFFFFF78EFA65
:100F100020780028C2D1422001F07AFF0146082043
:100F200001F0C1FF0A20FFF786F9ECA1082001F0CB
:100F3000A7FFFFF77BFA2078002862D1606B8178E9
:100F4000462001F0B0FF0021472001F0ACFFFFF781
:100F50006DFA2078002854D1636B58796870987BBB
:100F6000082802D009282CD053E0D87B0628207905
:100F70000DD0DF2108402071D87A1E462074193622
:100F8000AF701233AA783146002A04D102E0202142
:100F90000843F0E719468878E8700979402938D184
:100FA000010604D50007000F9030607403E00007CD
:100FB000000F1030A074521CD0B2A8700228E1D1EA
:100FC00011E0A07A002824D1C6A1082001F058FF22
:100FD000FFF72CFA2078002813D1E772606B807835
:100FE000A072002815D0C1A1082001F049FF2E46AB
:100FF0006978422001F057FFFFF718FA207800289F
:1010000020D0E07A002834D0000632D420786870EE
:1010100010E01F202070F4E7401CE072A870FFF77A
:101020007BFAE870002800D120E7822800D117E77A
:10103000A878E072E07AA17A8842EDD368782070CF
:10104000E77216E0A07A002802D0E07A002812D0D9
:101050000820A071A7A101F013FF217C442001F01A
:1010600022FFFFF7E3F9207800281CD020782E28F3
:101070001DD02078F4E6C0B2401CE07200F0DBFE28
:101080000321412001F00FFF0821422001F00BFF56
:10109000FFF7CCF9E07AA17A8842ECD3E772C82056
:1010A000FFF7C9F861E6606B0078687003E0002024
:1010B000FFF72EFB6F700220FFF7BDF8E7710125E7
:1010C00024211220FFF711FCFFF785FBF0700028A8
:1010D000707807D0002815D0E079032812D2401C80
:1010E000E071EDE7002806D0E079002803D1606BBD
:1010F0000078052804D003210220FFF794FAAFE618
:10110000E571DDE7FFF707FCAAE6F8B57B4C6078F0
:10111000032805D2FFF71FFE002862D1FFF7DAFD92
:10112000FFF77BF9206C754D754A0109002658358B
:10113000914203D10007000F287000E02E706F4C21
:10114000E670E6732662A663FFF75BFC002807D013
:10115000FFF704FBFFF7BEFDFFF753FC002840D16B
:101160002878002805D1606BFD2100780840E92827
:1011700002D0E078A07045E0A06B26E0616B081813
:10118000FF30C730FFF74CF8A063A178606B5B4A73
:101190004018FF30C130807854321070052821D0BB
:1011A0000F281FD0030602D58006800E107000069F
:1011B000000E25D00F2823D2287801281ED84F48AA
:1011C000A16B3C3000684018A0632064FFF719FC55
:1011D000002806D1606BFD2102780A40E92A1FD061
:1011E000A1203DE6216AA06B4018A063E17B0029A5
:1011F000AAD1A2781032E2732062A5E7401E2870BF
:101200001031A170A0784028B8D1E07B2146002899
:1012100002D0CA78002A01D0922021E6E07091E73E
:10122000417BE170A17007212173A1780A0609D4DE
:101230004900A170217B491E0906090E2173F4D1D2
:101240000121E170C18A618300290BD1416A012229
:1012500012042165914204D32A78002A01D0A220E9
:10126000FEE56183C17C027D114303D0133000F0A1
:10127000DBFD00E0006AE061606B113000F0D4FD3E
:10128000E18A4909491EC9B24218E07C401FC240A8
:10129000A262606BC189A182678BCB199A18226503
:1012A000037C9C46022B31D06683236DE269D21AFF
:1012B000237BDA40134BA2649A423BD2124B92B288
:1012C00026839A4225D2012224E0000080060001F4
:1012D000000012000005020000000000800600026D
:1012E00000000400A0060029000009000009000019
:1012F00000000000A1FE000000000100D402002058
:1013000067452301F5FF0000F50F0000D2192265A3
:10131000CBE70222A270002915D0A16A002912D0C1
:101320006146012902D0618B00290CD0C17A0029C5
:1013300009D105E0028E2283C26AA2620322E9E794
:10134000007B022807D22978002901D0A32087E555
:1013500001212970F3E6FE48828A016C521842642A
:10136000026D5118C16210210320FFF75CF977E587
:1013700070B5F74DF64C3C352868A063FFF7F4FBD9
:10138000002810D1608B00280BD0A16B0818A06337
:10139000FFF7EAFB002806D1618BA06B401AA0631F
:1013A00028600020607370BDF8B5E94D0C46A9783F
:1013B000006802290BD003290BD080B2694608804F
:1013C00029460979C20706D01022114305E04000E2
:1013D00006E0800004E0EF22114029714108401826
:1013E0000090E98A6A6B491E89B201408918A96593
:1013F000E97CC840696C4618D54800963C300068C6
:1014000086420BD0687B002803D0FFF7B1FF00288D
:1014100072D1AE63FFF7F5FA00286DD10127002CD9
:1014200006D0FF2C2FD0012C30D0286D00906F7388
:10143000C74EA87854362A46022829D0032837D028
:101440006846407805072D0F68464570C048C28A37
:10145000416B806D8918491E81424ED001783170F0
:10146000BB4B42787270002C7CD01A79D2063AD5E8
:101470000A0769460978120F0B011A43027009091D
:101480002A01114336E00020C043CFE70020CDE71A
:10149000906D0023018831807380AE4B994200D259
:1014A00000276F71002C75D069460988018071E0B2
:1014B000906D6D4601683160E9780B07F1781B0F7C
:1014C0000D092D012B436D46EB700907090FF170D3
:1014D000A14B3168994200D200275771002C59D096
:1014E0000099016056E06946097801707178090930
:1014F00009012943417035E04DE003783370002C39
:101500000AD0934A694612790978D20603D51A0798
:10151000120F0901114301708D48407B204303D015
:10152000FFF726FF002836D1894889493C300068FA
:10153000401C8863FFF765FA00282CD1844A002CF0
:10154000516B087870700DD01379DB0605D56846AD
:10155000007800092B01184302E00009000128432C
:10156000087057737A490879C00607D530780209A0
:10157000707803011A433270000902E070780007A6
:10158000000F7070002070803088744A904200D242
:1015900000274F71002063E4F8B56E4F6C4C08379C
:1015A000FF2625465435A16C206D884201D9B12013
:1015B00056E4401C2065664800215030FFF7F4FED9
:1015C0000028F5D1286800284FD0206DA26C014674
:1015D000304332439042E6D0A0780128E3D0626BDA
:1015E000A2650228E08A0BD08008401E82B22A80C1
:1015F0006A80A06D001DA0650388002B17D01CE039
:101600004008401E82B22A806A80A06D801CA065BE
:101610000088002808D02888401E0004000C28807C
:10162000F3D10A432265BEE7A06D078012E08378FC
:10163000002B02D1C3781B0706D02888401E000467
:10164000000C2880D5D1ECE707808670C1780F2286
:101650001143C1706888216D08432988401A401CD5
:10166000206501206073002004E53948FF215030D7
:10167000FFF79AFEFEE410B5FFF78EFFB12804D104
:10168000334900200865FFF787FF10BD10B5304CC7
:10169000208B002810D0216C4018A063FFF7B1F90F
:1016A000002809D1606B226DFF30C130816A891832
:1016B00021658162FFF758FA10BDF8B5244C6078B7
:1016C000102803D2FFF721FD00287ED11021084603
:1016D000FEF7A9FF002878D12149A07308780028D7
:1016E00073D05C2805D02F2803D04A783A2A03D03B
:1016F00038E01B48401C03E0432833D31848C01C83
:10170000E0640022A0781146032800D1A16AE161BB
:10171000E16C0978002926D1491E2162032810D0E6
:101720000220E061A06AE36AC1B2591AE162E17C79
:1017300080B2884006492062E0782831C870A06AEB
:10174000E070E06962622065E273122060708CE0F4
:10175000D4020020F7FF0000F7FFFF0FF70F000093
:10176000D8860020E164FF4FFE4C543CE06900281D
:1017700007D0E178E173217B801E8840E16A401840
:1017800004E0A06AC0B2E073E16A081A2063A3E033
:10179000206BA063FFF735F9002816D190E0616B4C
:1017A0000A18A2651378002B73D0E52B72D0052B95
:1017B00000D1E523E16C0D789D4201D02A2D7DD129
:1017C00001209D4200D0002000E04FE0F87026E0AC
:1017D000FD78165C4B5D9E421DD0002B06D05C2B25
:1017E00004D02F2B02D02E2B09D00CE0F3B2202BEB
:1017F00009D1082809D2107A202806D04FE0082DF8
:1018000008D0202E06D00B2849D3D07A000746D422
:1018100000209FE00720401C6D1CC0B2FD700B280B
:10182000D6D3F2E7CF4B828A383B5A80FA78E36C02
:101830009B5C002B02D06379002B2CD0C94C00227A
:10184000543CE16962622165E273A36DDB7ADB06D9
:101850000DD5501E206213211020FEF7E4FE002853
:1018600004D161794320002900D1412047E4C069B7
:101870002062002902D1FF20E0732262142110208F
:10188000FEF7D1FE0028F1D160790028EED0432088
:1018900035E433E012E0491C5018E06464E7FB785B
:1018A000C85C2A280AD1D07A000707D44A1C985C61
:1018B000002826D0FF2856D0401E9854A08A2030F9
:1018C000A082E18A80B2884200D268E7206B401C87
:1018D0002063E07B401EE073E07B002800D057E7E8
:1018E000E0692546002809D09E4800213838FFF7D6
:1018F0005BFD0028BAD16879002842D00021E26C53
:1019000048E000207870A26D125C202A19D00828C7
:1019100006D17B78E56C2E22EA547A78521C7A70D4
:10192000A26D7B78E56C125CEA547A783E46002A18
:1019300004D10A78052A01D1E5220A707278521C76
:101940007A70401CC0B20B28DDD37A78E36C00209B
:10195000985401206071A06D428BE261A278032A45
:1019600000D063E75EE7206A0028CAD07D4834389B
:10197000C078000601D50DF052FC206A401E20629E
:101980009CE73868E861EFE65C280AD02F2808D089
:10199000491CC9B2505C002801D02A28F4D1422049
:1019A0001FE4B3201DE410B56E4C0020543CA0731E
:1019B0006078142810D3206BA063FFF722F800286A
:1019C00009D1A18A606B4018C17AC90604D4216A82
:1019D000C161FFF7C9F810BD002010BD614810B506
:1019E00054384178122901D2B42010BD4178002228
:1019F00012290CD18178032909D05A492C39CB7886
:101A0000C370CA70816AC36AC9B2C918C162417819
:101A1000132912D94178142903D15349097800298F
:101A20000BD0807B002803D0FFF7BDFF0028DCD15E
:101A300010210846FEF7F7FD10BD8273F8E710B5D8
:101A4000484C543C6078132803D2FFF736FE002838
:101A50002FD110210846FEF7E6FD002829D1206B82
:101A6000A063FEF7CEFF002823D1A18A606B401847
:101A7000E5210170FFF778F800281AD13949E069AB
:101A80000860002815D0401EE0610020206501217B
:101A90003448FFF789FC00280BD1206D401C2065DD
:101AA00060790028F3D0FFF763FC002801D1FFF72D
:101AB000EDFD10BD2B485438016D027B891E91400D
:101AC000C26A8918C27B891881637047F8B5FFF72D
:101AD000F4FD244C0025543CE07300280CD042282F
:101AE0007BD1A08AE18A884278D3E169002953D06A
:101AF0000006000E03D071E0FFF7A1FF49E019488E
:101B000000213838FFF750FC002866D160790028A2
:101B100064D0E06926462065FFF7ADFD00285CD162
:101B2000104802213838FFF73FFC002855D1FFF755
:101B30001FFC002851D1FEF770FC0020716B02E001
:101B40000D54401C80B2F28A9042F9D1F573FFF730
:101B5000B1FFB08A0006000E02D1B582B06B3063CF
:101B6000F07803E028030020D8860020C94F08E061
:101B7000FEF7FAFF002830D1B06B401CB063387814
:101B8000401E38700006000EF2D1401E3065FFF78F
:101B90007DFD002821D121E00006000E1ED1A06AA3
:101BA000E073206B401E2063A063FEF72AFF00282D
:101BB00013D1A582E38A626B05E011180978E52943
:101BC0000CD02030A082A08A9842F6D3E07B401E41
:101BD0000006000EE073E4D1B220DCE4E069206589
:101BE000FFF749FD0028F8D1FFF7C2FB0028F4D128
:101BF000062001F00DF9AF210840802801D0112006
:101C0000C9E4206DE0610020C0432065FFF73EFD80
:101C10000028E2D1206BA063FEF7F3FE0028DCD1A0
:101C2000A18A606B4118002020231A460B2800D39C
:101C300000220A54401CC0B22028F6D396480883DC
:101C4000012008770020E26C1378002B0DD02E2B9A
:101C500002D10820521CE26412780A54E26C401C43
:101C6000521CC0B2E2640B28EDD3E0694883894876
:101C7000383840888882FEF777FF0028ADD1E069C8
:101C8000256265622065E57314211020FEF7CBFC08
:101C900081E4F8B57F4C543C6078132801D2B4201D
:101CA00079E4206BA063FEF7ACFE0028F8D1002297
:101CB0006273A18A606B794E4018337AC17A3172AF
:101CC0000121FF2B01D0C3726173724FF3887B80B7
:101CD000C58AF580724DAB4201D0C3826173B3886F
:101CE0007B80058BB5806E4DAB4201D00383617361
:101CF0003368F360C5693560F57BFF2D04D023623E
:101D0000C3616173A27302E0607B0028C8D0627374
:101D1000FEF72AFF3FE410B5FEF7FEFB002815D1C1
:101D20005C4854384078032811D2FFF714F8002893
:101D300006D04020FEF77FFAFFF70DF8002805D106
:101D4000FEF7C8FF002802D0FEF7E5FD10BD002118
:101D50000846FEF7CAFDFEF73EFD4E4C00282070F7
:101D6000F4D000F086F8207810BD70B5494C4B4D8A
:101D7000543CE269002A1BD0E17C6868C840E17BE2
:101D8000401A68602968814202D3081A286000E07E
:101D90002265404E2868E178884215D33D480021ED
:101DA000001FFFF701FB002814D16079002804D040
:101DB000FF20E0730020C0430AE030682065E1782E
:101DC0002868401A2860E6E7E073FFF773FEA06B0F
:101DD0002860002070BD10B5FFF7DEFB2D4C543C91
:101DE000002807D0B1281ED100202065FFF7D4FBC2
:101DF000002818D1FFF7BCFA002814D1206DE0614B
:101E0000206BA063FEF7FDFD00280CD1A18A606B5A
:101E1000401801210177E16941831E493839498819
:101E20008182FEF7A1FE10BD1A4902780A7040783F
:101E300048700888704710B51AA1082001F020F8F2
:101E400014485438C07A4106490E442001F02BF85A
:101E500010BD10B515A1082001F012F80D48543836
:101E6000C07A4106490E442001F01DF8FEF7DEFA63
:101E700010BD10B50A20FEF7DEF912210320FEF78F
:101E800034FDFEF7A8FC0220FEF7D5F901485438CE
:101E9000007810BD2803002021300000D8860020E3
:101EA000FFFF00002301100001000000A30000005C
:101EB0000100040010B5B4480078142801D0B42003
:101EC00010BDB248B34A0168B148016000201060FB
:101ED000002900D1FF20B049087015211420FEF719
:101EE000A2FB10BD10B5A8480078152803D0FFF755
:101EF000E1FF002812D1A74AA84B10685860196862
:101F0000A74811600068814201D8084600E01060CF
:101F1000A4490978C8401860FFF727FF10BDF8B53D
:101F200099480078152803D0FFF7C4FF002877D11F
:101F30009A489D4902780A700022027096489B4F89
:101F400000789B4CFF286AD065E0924D3A8828685B
:101F5000531E03409BB2D21A8A4200DA41422170DA
:101F6000C9B20A188E4909688A4204D3081A0006C1
:101F7000000E207053D0FFF79DFDFEF742FD0028B4
:101F80004ED1388829688B4A401E0840126880B2BA
:101F9000894B801818602078411829603178091A17
:101FA00031707E4E3178721C8A18081830701868AB
:101FB000007810701868521C401C18602078401E71
:101FC0000006000E2070F2D139882868491E0840AA
:101FD0000004000C1FD1704D78492878401CC0B215
:101FE00028700978884216D300216948FFF7DCF988
:101FF000002815D172480078002807D0FF21284614
:102000000170644801686648016008E06049206822
:10201000086000202870644E3178002995D1002096
:10202000F8BDF8B558480078152803D0FFF742FFEF
:1020300000280BD1594A5C4910780870002806D155
:1020400060480078002802D0FFF7ADFCF8BD534A85
:10205000002010704F4F504C90E02078FF2813D094
:10206000FFF728FDFEF7CDFC0028EFD14F4B396874
:102070001A88501E084080B2161A4B4A12789642AF
:102080002EDB4B4D2A702EE040480068002824D0FB
:102090003F4801683960FFF7EEFA0028D6D10221E7
:1020A0003C48FFF781F90028D0D1FFF761F90028FB
:1020B000CCD1374E306838600020C0433060FFF725
:1020C000E5FA396831600028C0D1354800683860C9
:1020D00000202070FFF7EEFCC8E7FFF77CFEE6E784
:1020E000334E4D423570334B314D1B682B4EC0186B
:1020F000314B18602878411839602B49121A0A7040
:102100003178721C8A1808183070186811780170BC
:10211000401C18602878521C401E0006000E2870D3
:10212000F3D1FEF721FD002890D11D4A38681168CF
:10213000814203D21060234901220A701B49098899
:10214000491E08400004000C18D120781B49401C8F
:10215000C0B220700978884210D300210C48FFF7E4
:1021600023F900289AD116480078002801D0FF20D2
:1021700003E0074829680160002020700A4D287894
:10218000002800D069E7F8BDD5020020F002002049
:1021900024030020F8020020E3020020D88600205B
:1021A000F4020020E702002020030020EA020020C1
:1021B00028030020080300202C030020D702002061
:1021C000D9020020E202002010B5FEF7A5F9002890
:1021D0000DD140480078032803D2FEF7BCFD00284B
:1021E00005D1FEF777FD002802D0FEF794FB10BD65
:1021F00039480068044600F0CCF800BA000AE178DB
:102200000002084335490860002010BDF8B5FEF70C
:1022100083F9002801D08220F8BD2E4800781028CC
:1022200003D2FEF772FF0028F6D110210846FEF710
:10223000FAF90028F0D12A48284D0078294C287353
:10224000294F21683A780846904068602748284E10
:10225000008800281ED027490968401826490860D0
:10226000FEF7CFFB0028D7D11B480068FF30E130D4
:10227000C07AFF2805D120683060FFF707FA0028F0
:10228000CAD1154839780068FF30C130806A88406B
:10229000A8601CE00020891CA860184C0220316056
:1022A000174F206010E000211448FFF77DF8002848
:1022B000B2D114480068002803D13978A8684018C2
:1022C000A8602068401C206031688842EBD1002063
:1022D000F8BD0000D502002008030020D8860020A9
:1022E000D60200201C030020E0020020EC020020A7
:1022F00024030020140300200C030020F00200201F
:10230000D70200202803002040EA01039B0703D0E6
:1023100009E008C9121F08C0042AFAD203E011F824
:10232000013B00F8013B521EF9D27047D2B201E0E6
:1023300000F8012B491EFBD270470022F6E710B5CA
:1023400013460A4604461946FFF7F0FF204610BD23
:1023500010B5044604E00B7800F8013B03B1491CBA
:10236000521EF8D2204610BD421C10F8011B002955
:10237000FBD1801A704710B5002200E0521C835C2C
:102380008C5CA34201D1002BF8D1D8B2E1B2401A43
:1023900010BD0321001D491E10F8013D43EA022231
:1023A000F9D510467047F0B480EA0102D40F42001C
:1023B000B2EB410F02D20246084611464A0042D013
:1023C000C30DDDB2C1F3C752AD1A202D35DAC1F30A
:1023D000160141F4000204B15242C5F1200602FA8E
:1023E00006F12A411044B3EBD05F23D0C4B1012DD4
:1023F000A0EBC35009DCF0BC4FF0004202EAC3522C
:10240000DBB200F5000000F03EBB400000F1807040
:1024100000EBC350A0F1807040EAD170490009E0A0
:10242000490841EAC071A0EBC35000F50000400824
:1024300000EBC350F0BC00F01DBB6142012202EB77
:102440004101001BF6E7F0BC704781F00041AAE7AC
:1024500080F00040A7E780EA010210B502F00043D7
:10246000400022D04A001FD0010E01EB1261C0F3E0
:102470005600C2F3560240F4000042F40002A0FBF2
:10248000022000047F39140400D0401C50EA12409E
:1024900001D44000491EC2B20C0604EBD010401C0F
:1024A0004008802A02D003E0002010BD20F0010087
:1024B000002900DA0020184310BD30B480EA010280
:1024C00002F0004530F0004221F0004013D090B1FE
:1024D000C30DD40DC2F31601C0F31600E41A41F483
:1024E000000140F400027D34914201D3641C00E0FD
:1024F0004900002C02DA30BC002070474FF4000085
:102500000023914201D3891A034340084FEA410155
:10251000F7D151B1914202D14FF0004105E002D212
:102520004FF0010101E06FF0010103EBC4502844BA
:1025300030BC00F09FBA2DE9FE4F804681EA0300CF
:10254000C00F0C46009021F0004123F00045B8EB8D
:102550000200A94105D24046214690461C460B4642
:10256000024623F00040104347D0270DC7F30A006E
:10257000C3F30A510290401A019040286BDAC3F36A
:10258000130040F4801B0098924620B10023D2EB48
:10259000030A63EB0B0B01985946C0F14002504609
:1025A00000F037FA06460D4650465946019A00F0AB
:1025B0004FFA10EB08006141002487EA115284EAC7
:1025C000E7731A4340D0009A62B3019A012A4FEA96
:1025D000075215DC001B61EB02014FF0004202EADA
:1025E0000752CDE90042001C41F5801132462B46CE
:1025F00000F086FA03B0BDE8F08F40462146F9E7C7
:10260000001B61EB0201001C41F5801300185B41C7
:102610002018A2F5001747EB030140EAD570B61960
:102620006D4111E06D084FEA360645EAC0754FEA84
:102630000752001B61EB0201001C41F580114908A3
:102640004FEA30000019514132462B4603B0BDE835
:10265000F04F00F046BA0098012240000023D0EB72
:10266000020263EBE073009821464FEAE074B8EB96
:10267000000061EB0401E9E783F000435BE781F0D0
:10268000004158E72DE9FE4F81EA030404F00044BD
:1026900021F0004100944FF0000B23F0004350EA7A
:1026A00001045ED052EA03045BD0C3F30A54C1F3C1
:1026B0000A552C44A4F2F3340194A0FB0254C1F354
:1026C000130141F48011C3F3130343F4801301FB9E
:1026D000024400FB034E840A970A44EA815447EA05
:1026E0008357A4FB076802958D0A05FB07854FEA0F
:1026F000932C04FB0C542705029D4FEA065847EA29
:102700001637B5EB08056EEB070C870E920E47EAFD
:10271000811742EA8312A7FB0201B6EB0B0164EBBF
:1027200000042B0D43EA0C335E1844EB1C50DA46D0
:102730005146E7FB0201C5F313044FEA0B3343EAAA
:1027400014534FEA0432019C43EA0603A4F10C043B
:102750000294009CCDE900B400F0D2F903B0BDE8CA
:10276000F08F00200146F9E72DE9F04D81EA0304DE
:1027700004F0004B21F0004514464FF0000A23F00E
:10278000004150EA050220D054EA01021DD0C5F3F1
:102790000A570246C5F31303C1F31300C1F30A56E7
:1027A00040F4801543F48013A7EB0608101BD646AF
:1027B00008F2FD3873EB050002D308F1010801E0CF
:1027C00092185B41B8F1000F03DA00200146BDE822
:1027D000F08D00204FF48011064684460EE0171B52
:1027E00073EB050705D3121B63EB050306434CEAA5
:1027F000010C49084FEA300092185B4150EA01078A
:10280000EDD152EA030012D082EA040083EA050106
:10281000084305D0101BAB4106D20122002306E07D
:1028200000224FF0004302E06FF0010253101AEB58
:1028300006004CEB085110EB0A0041EB0B01BDE820
:10284000F04D00F04EB9C10F80EAE0700844CA07AD
:102850009623002100F017B996230022114600F0BC
:1028600012B90EB5C10F80EAE0700844CA07002112
:1028700040F233438DE80E000A460B4600F040F963
:1028800003B000BD0EB540F2334102910021CDE905
:1028900000110A460B4600F033F903B000BD20F0EA
:1028A0000040C10DC0F3160040F400007F2901DA9A
:1028B00000207047962903DCC1F19601C84070479B
:1028C000963988407047C1F30A5210B5C1F313011D
:1028D00040F2FF3341F480119A4201DA002010BD2A
:1028E00040F233439A42A2F2334203DC524200F0F8
:1028F0009FF810BD904010BD00F0004230F0004045
:102900000AD0C10D01F56071C0F3160042EA015111
:10291000C20840071143704700200146704700007D
:1029200030B5041E71F1000404DB4FF00044404256
:1029300064EB0101141E73F1000405DB1C464FF02B
:102940000043524263EB0403994208BF904230BDFA
:1029500001F0004330B421F0004150EA010206D0FA
:102960000A0DA2F56072C1F31301002A02DC30BC2B
:1029700000207047440F44EAC104C100E01830BC95
:1029800000EBC25000F076B8002801DBC0F1004037
:10299000002901DBC1F1004181427047002801DBC1
:1029A000C0F10040002901DBC1F1004188427047BD
:1029B0002DE9F05F0546002092469B468846064674
:1029C000814640241BE0284641464746224600F007
:1029D0002FF853465A46C01A914110D31146184653
:1029E000224600F016F82D1A67EB01084F462246E2
:1029F0000120002100F00DF817EB00094E41201EC8
:102A0000A4F10104DFDC484631462A464346BDE8CE
:102A1000F09F202A04DB203A00FA02F100207047E0
:102A20009140C2F1200320FA03F31943904070470C
:102A3000202A04DB203A21FA02F00021704721FA13
:102A400002F3D040C2F1200291400843194670477A
:102A5000202A06DBCB17203A41FA02F043EAE07362
:102A600006E041FA02F3D040C2F12002914008434F
:102A7000194670470029A8BF7047401C490008BF8D
:102A800020F00100704710B4B0FA80FC00FA0CF09E
:102A900050EA010404BF10BC704749B1CCF12004D6
:102AA00021FA04F411FA0CF118BF01212143084363
:102AB000A3EB0C01CB1D4FEA00614FEA102042BF8F
:102AC000002010BC704700EBC35010440029A4BF85
:102AD00010BC7047401C490008BF20F0010010BC2A
:102AE000704710B5141E73F1000408DA401C41F160
:102AF000000192185B411A4301D120F0010010BD82
:102B00002DE9F04D92469B4611B1B1FA81F202E0F7
:102B1000B0FA80F220329046FFF77BFF04460F4662
:102B200040EA0A0041EA0B0153465A46084313D0D3
:102B3000114653EA010019D0C8F140025046FFF790
:102B400077FF05460E46504659464246FFF761FF5D
:102B5000084305D0012004E020463946BDE8F08D49
:102B60000020054346EAE0762C4337430A98630584
:102B7000E40AA0EB08000022FD0A44EA47540A30A8
:102B800002D500200146E9E7010510196941DDE998
:102B9000084500196941BDE8F04DA2E7064C074D14
:102BA00006E0E06840F0010394E80700984710341D
:102BB000AC42F6D3FDF7C0FAD8F50008F8F50008E6
:102BC00070B58C1810F8015B15F0070301D110F8EF
:102BD000013B2A1106D110F8012B03E010F8016B1C
:102BE00001F8016B5B1EF9D12B0705D40023521E9F
:102BF0000DD401F8013BFAE710F8013BCB1A921C07
:102C000003E013F8015B01F8015B521EF9D5A14204
:102C1000D8D3002070BD10B5012008F0B3FD00200E
:102C200008F0B0FD10BD000008B50146002000907E
:102C3000034800900098084400900098008808BD60
:102C4000006C004008B500220092044A0092009AED
:102C500002440092009A116008BD0000006C004020
:102C600010B5024612B1012A0ED106E0C1EBC10334
:102C7000064C04EB8303187E06E0C1EBC103034C52
:102C800004EB8303987D00BF00BF10BD9057002068
:102C900010B5024612B1012A0ED106E0C1EBC10304
:102CA000064C04EB8303D87D06E0C1EBC103034C63
:102CB00004EB8303587D00BF00BF10BD9057002078
:102CC00070B505460C4615B1012D14D109E004EB91
:102CD00084010A4800EB41020221084609F066FD22
:102CE00009E004EB8400064901EB4002022108469A
:102CF00009F05CFD00BF00BF70BD0000C85C002093
:102D00009C5B002070B505460C4615B1012D14D111
:102D100009E004EB84010A4800EB41020121022092
:102D200009F044FD09E004EB8401064800EB410290
:102D30000121022009F03AFD00BF00BF70BD000074
:102D40002C5D0020005C002000BFFEE710B5FDF701
:102D500065FA192801DAFF2010BD0348034908600D
:102D6000FDF774FCF8E7000010870020080300203E
:102D700010B509F003F832200CF0B0F85A21082001
:102D800000F091F8082000F043F85A2803D004A07E
:102D90000BF00CFE02E005A00BF008FE10BD0000D9
:102DA000436F6D6D204572726F0A0000436F6D6D49
:102DB000204F4B0A0000000070B506460D46144631
:102DC000C021304609F046FD04E0FF2009F03AF842
:102DD00004F8010B281EA5F10101CDB2F5D109F0CF
:102DE0004BFD70BD70B506460C46C021304609F05B
:102DF00031FD402506E0FF2009F024F804F8010B1E
:102E0000681EC5B2002DF6D109F036FD204670BD12
:102E100070B50446C021204609F01CFDFF2009F0D2
:102E200011F8054609F028FD284670BD70B5064624
:102E30000D4614468021304609F00CFD03E014F8DD
:102E4000010B08F0FFFF281EA5F10101CDB2F6D15C
:102E500009F012FD70BD70B506460C468021304663
:102E600009F0F8FC402505E014F8010B08F0EAFF32
:102E7000681EC5B2002DF7D109F0FEFC204670BDDA
:102E800070B505460C468021402009F0E3FC00BFE8
:102E9000207808F0D7FF641C681EC0B2051EF7D169
:102EA00009F0EAFC70BD70B505460C468021284645
:102EB00009F0D0FC204608F0C5FF09F0DDFC70BD2C
:102EC0002DE9F04F89B004468846924600200790CD
:102ED000002500260027834606908146514620465D
:102EE000FFF72BFAFE4800680690FE48B0F8009005
:102EF00008F10100000E207008F10100000C607064
:102F000008F10100000AA07008F10100E070F64825
:102F10000078C0EBC000F54A02EB80010A22201DB8
:102F2000FFF716FA0822F24904F10E00FFF710FA33
:102F3000F04880880012A075EE488088E075ED4862
:102F400080792076EB48C0796076EA480078A076F0
:102F5000E8484078E076E748807820771022E64914
:102F600004F11D00FFF7F4F90822E44904F12D00F3
:102F7000FFF7EEF91022E24904F13500FFF7E8F916
:102F8000E048007804F8450FDF4800786070DD48BD
:102F90000178069801F032FD0590FFF780FC1FFADA
:102FA00080FB4FEA2B20A07084F803B0453CD74843
:102FB0000078062862D2DFE800F0610362FFF5F4D2
:102FC000D3480068FFF73FFC01460590CE480078E3
:102FD00001F048FD0646300E04F8490F300C6070D1
:102FE000300AA070E670CB480068FFF72CFC024660
:102FF0000590C5480078069901F046F90546280E67
:103000002071280C6071280AA071E571BF48007812
:1030100084F82100C048007884F82200493CBD486B
:103020000068FFF710FC05900698FFF765FCBB4AA7
:10303000BB4BCDE90001FFF725FBCDE90201FFF70E
:1030400087FC04900146B0480078059A01F01CF90D
:103050000746B148007801280DD1F01BA84206D2DE
:10306000F019A84203D9012084F86C0006E0002082
:1030700084F86C0002E0012084F86C0002E2A948A8
:103080000068FFF7E0FB014605909F48007801F0DB
:10309000E9FC0646300E04F8490F300C6070300A27
:1030A000A070E6709B480068FFF7CDFB02460590D4
:1030B00095480078069901F0E7F80546280E20713A
:1030C000280C6071280AA071E571493C9648007887
:1030D00010B1012834D119E09448007800EB800247
:1030E000934800EB42010A2204F15100FFF730F946
:1030F0009048007800EB80028D48643800EB420174
:103100000A2204F15B00FFF723F919E087480078F1
:1031100000EB8002884800EB42010A2204F15100D2
:10312000FFF716F98348007800EB8000824A643A82
:1031300002EB40010A2204F15B00FFF709F900BF2E
:1031400000BF7248007884F86A007348007884F8F9
:103150006B0070480068FFF776FB05900698FFF754
:10316000CBFB6E4A6E4BCDE90001FFF78BFACDE940
:103170000201FFF7EDFB0490014663480078059AD1
:1031800001F082F8074664480078012810D1F01B4E
:10319000A84209D2F019A84206D9012084F86C008F
:1031A00009E010E16EE007E0002084F86C0002E026
:1031B000012084F86C0065E160480068FFF743FB7C
:1031C000014605905048007801F03EFB0646300E5F
:1031D00004F8490F300C6070300AA070E6704D485A
:1031E0000068FFF730FB02460590474800780699D3
:1031F00001F04AF80546280E2071280C6071280A53
:10320000A071E5714E484F49097810F8310084F8F3
:1032100020003E48007884F821003F48007884F878
:103220002200493C3B480068FFF70DFB05900698DB
:10323000FFF762FB394A3A4BCDE90001FFF722FA6A
:10324000CDE90201FFF784FB049001462E48007887
:10325000059A01F019F807462F48007801280DD18A
:10326000F01BA84206D2F019A84203D9012084F825
:103270006C0006E0002084F86C0002E0012084F875
:103280006C00FFE022480068FFF7DDFA0146059078
:103290001D48007801F0E6FB0646300E04F8490FA1
:1032A000300C6070300AA070E6701A480068FFF7B2
:1032B000CAFA0246059014480078069900F0E4FF27
:1032C0000546280E2071280C6071280AA071E5714E
:1032D0001D480088000A20771B480078607735E099
:1032E00030020020340200201C00002090570020F3
:1032F0000C760020188A00202076002034760020EA
:1033000048760020200000201F0000204000002000
:10331000240000203000002099000020B81E85EB1A
:1033200051B89E3F340000201B0000201D000020EB
:103330002C5D00201E000020005C00202C000020DE
:10334000146600202A000020280000204FEA2920CF
:10335000A07784F81F904D48007884F821004C48ED
:10336000007884F82200493C4A480068FFF76BFA6D
:1033700005900698FFF7C0FA474A484BCDE900018F
:10338000FFF780F9CDE90201FFF7E2FA0490014668
:1033900043480078059A00F077FF07463C480078DC
:1033A00001280CD13F48B0F90000814503DB012022
:1033B00084F86C0006E0002084F86C0002E0012034
:1033C00084F86C005EE038480068FFF73CFA01467C
:1033D00005903348007801F045FB0646300E04F8AE
:1033E000490F300C6070300AA070E6702948006800
:1033F000FFF729FA0246059029480078069900F05F
:1034000043FF0546280E2071280C6071280AA07120
:10341000E5711E48007884F821001D48007884F882
:103420002200493C1B480068FFF70DFA05900698FA
:10343000FFF762FA184A194BCDE90001FFF722F9AC
:10344000CDE90201FFF784FA0490014614480078A0
:10345000059A00F019FF07460D48007801280DD1A4
:10346000F01BA84206D2F019A84203D9012084F823
:103470006C0006E0002084F86C0002E0012084F873
:103480006C0000BF00BF09B0BDE8F08F4000002015
:103490009900002030000020B81E85EB51B89E3FF7
:1034A0001F0000202800002024000020704700009A
:1034B00008B53C4880783C49097888420DD0022004
:1034C00000903848827800230821184609F028F92E
:1034D000344880783449087062E032484078334993
:1034E000097888420DD0022000902E4842780023AF
:1034F0000721184609F014F92A4840782B4908702A
:103500004EE0284800782A49097888420DD00220E8
:1035100000902448027800230621184609F000F99B
:1035200020480078224908703AE01E48C0792149B5
:10353000097888420DD0022000901A48C2790023F1
:103540000521184609F0ECF81648C07919490870A9
:1035500026E0144880791849097888420DD0022065
:1035600000901048827900230421184609F0D8F809
:103570000C4880791049087012E00A4880880F4989
:10358000098888420CD004200090064882880023D5
:103590000321184609F0C4F80248808807490880CA
:1035A00008BD0000188A0020680000206700002085
:1035B00066000020690000206A0000206C000020E6
:1035C000F0B585B006460C46A5208DF800008DF8B4
:1035D0000160200E8DF80200200C8DF80300200AF7
:1035E0008DF80400E0B28DF80500062529466846EE
:1035F00000F01EFE87B23A0A29466D1C0DF8012024
:10360000FAB229466D1C0DF801202946684600F0E3
:10361000DDF8142007F0EAFC05B0F0BDF0B585B088
:1036200005460E46A5208DF800008DF80150F0B239
:103630008DF8020003242146684600F0F9FD87B2A8
:103640003A0A2146641C0DF80120FAB22146641C96
:103650000DF801202146684600F0B8F8142007F064
:10366000C5FC05B0F0BD2DE9F043C1B00746884662
:1036700014464FF4807101A8FEF75FFE0025A946AD
:103680000026A5208DF804008DF805708DF8064001
:1036900000BF06E018F80510E81C01AA1154681CC8
:1036A000C5B2A542F6DBE01CC6B2314601A800F067
:1036B000BFFD1FFA80F94FEA19223046711CCEB2C5
:1036C00001A90A543046711CCEB201A901F800903C
:1036D000314601A800F07AF8022007F087FC41B0DB
:1036E000BDE8F08310B586B004460121102008F033
:1036F00029F80121C80408F005F84FF48060ADF8FE
:10370000140018208DF8170003208DF8160005A965
:103710001E4800F0ABFC4FF40060ADF8140004202C
:103720008DF8170005A9194800F0A0FC34208DF889
:10373000000002208DF8010003208DF80200012016
:103740008DF80300684607F07FF911480AF042FD42
:1037500001940020ADF80800ADF80A00ADF80C00A7
:10376000ADF810000C20ADF80E0001A908480AF0D1
:10377000DBFD012240F2255105480AF0B0FD012190
:1037800003480AF01AFD06B010BD00000010014009
:10379000004C004010B503460A480078814201DD24
:1037A00008480178002205E00748805C18705B1C1F
:1037B000501CC2B28A42F7DB0020024C207008463F
:1037C00010BD00002C0200201089002070B50546B5
:1037D0000E460024002004460DE0295D07480AF04B
:1037E00014FE00BF802105480AF042FD0028F9D0F0
:1037F000601CC0B20446B442EFDB70BD004C004018
:1038000010B5802000F0A2F800B30120174908701D
:103810004102174800F0FEFC01280DD101021448B6
:1038200000F0F8FC012803D10B201249087011E0C8
:103830000C20104908700DE04FF480710C4800F026
:10384000E9FC012803D103200A49087002E00420A2
:1038500008490870802000F073F84FF4807000F081
:103860006FF84FF4007000F06BF810BD5F0000209F
:1038700000100140720200201FB50121084607F028
:1038800061FF0121102007F05DFF01212A4800F0AF
:1038900079FC4FF46070ADF80C0048208DF80F00F3
:1038A00003A9264800F0E2FB0721022000F0BEFB3E
:1038B0008020019000208DF808000C208DF8090070
:1038C00001208DF80A0001A800F054F80821022018
:1038D00000F0ACFB4FF48070019000208DF80800E0
:1038E0000C208DF8090001208DF80A0001A800F0D5
:1038F00041F80921022000F099FB4FF4007001907B
:1039000000208DF808000C208DF8090001208DF8AA
:103910000A0001A800F02EF817208DF80000022000
:103920008DF801008DF8020001208DF80300684633
:1039300007F08AF81FBD00000002300000100140AF
:10394000014908607047000014040140014600204E
:103950000022074B1B6803EA0102054B14331B6866
:103960000B4013B10AB1012000E0002070470000B5
:1039700000040140002123498279002A3AD00A46F6
:10398000126803689A430B461A600A1D126803689E
:103990009A430B1D1A60027911440A6803681A439E
:1039A0000A60184A0832126803689A43154B0833B4
:1039B0001A601A1D126803689A43124B0C331A607E
:1039C0004279102A0ED11A1F126803681A430D4B50
:1039D00008331A601A1D126803681A43094B0C3326
:1039E0001A600DE00749427911440A6803681A43D6
:1039F0000A6005E0027911440A6803689A430A6084
:103A000070470000000401402DE9F0410546002602
:103A1000002728781C2846D2DFE800F0450E4659DA
:103A20006E8196A3C4E0FEFD4545FCFBFA45F9F81E
:103A3000F7F6F54545F4F3F220214FF4A04006F0E7
:103A4000B5FE4FF4A041F348008806F0BBFF40F6F6
:103A50009801F148FEF771FC00241EE0022007F0F7
:103A6000C5FAC4EBC4024FF4C04303EB8201C4EBBC
:103A7000C402EA4B03EB82001C2208F00BFA40F26E
:103A8000131060434FF4304202EBC00140F698023D
:103A9000E14808F0FFF9601CC4B2DE4800888442A7
:103AA000DCDB00202870B1E12021480206F07EFE18
:103AB00001229103DA4806F059FFD948027844F20E
:103AC0000101D84806F052FF002028709EE1202115
:103AD0004FF4405006F06AFE01224FF44051D248A4
:103AE00006F044FFD048027843F20101CF4806F0C7
:103AF0003DFF0020287089E12021080206F056FED3
:103B000001225103CA4806F031FFC948027842F247
:103B10000101C84806F02AFF0020287076E1202124
:103B20004FF4204006F042FE01224FF42041C248EB
:103B300006F01CFFC04802784AF20101BF4806F0B7
:103B400015FF0020287061E12021C80106F02EFE3B
:103B50004FF4A051BA48008806F034FF00202870C6
:103B600054E12021880206F021FE0122D103B5484C
:103B700006F0FCFE00240EE0022007F037FA48F2BF
:103B8000020202EBC401B04A02EBC400082206F0B4
:103B9000EDFE601CC4B2AB4800788442ECDB002030
:103BA000287033E1002412E0022007F01FFAC4EB72
:103BB000C4024FF4C04303EB8201C4EBC402974B31
:103BC00003EB82001C2208F065F9601CC4B2914826
:103BD00000888442E8DB0020287017E19B480068D9
:103BE0009B49884202D900209849086020214FF45F
:103BF000883006F0DBFD4FF48831944800680CE013
:103C0000FBE0F1E0E7E0DDE0D3E0C9E0BFE0B1E0F8
:103C1000A2E092E088E079E04EE006F0E4FE8D4814
:103C20000078012838D18C48007804280DD18748C5
:103C30000068401E6D22504300F5A031874808F00F
:103C400029F9042007F0D2F933E0854806787F4847
:103C50000068871B002419E03919C4EB0412814B5A
:103C600003EBC20008F0CBFD3A196D235A4302F56D
:103C7000A031C4EB04127B4B03EBC2006D2208F0B1
:103C800009F9042007F0B2F9601CC4B2B442E3DBC6
:103C90000020734908700CE06C480068401E6D22DB
:103CA000504300F5A0316D4808F0F4F8042007F007
:103CB0009DF900202870A9E0002412E0022007F0FE
:103CC00095F9C4EBC4024FF4C04303EB8201C4EB8B
:103CD000C402524B03EB82001C2208F0DBF8601C8C
:103CE000C4B24C4800888442E8DB5F48007840F268
:103CF000131250434FF4304202EBC00140F69802D9
:103D0000454808F0C7F8002028707FE020214FF4D4
:103D1000504006F04BFD4FF450415448006806F007
:103D200062FE0020287071E001224CF2140150481C
:103D300008F0B0F80020287068E020214FF46040BF
:103D400006F034FD4B49098888B24FF4604106F013
:103D500039FE0020287059E020214FF4704006F011
:103D600025FD4FF470414448006806F03CFE0020F9
:103D700028704BE02021C80206F018FD4FF4803176
:103D80003E48008806F01EFE002028703EE001221A
:103D90004CF22D013A4808F07DF80020287035E0FB
:103DA00001224CF23201374808F074F800202870E4
:103DB0002CE001224CF23701334808F06BF8002068
:103DC000287023E001224CF23C01304808F062F8F0
:103DD000002028701AE001224CF24B012C4808F018
:103DE00059F80020287011E001224CF250012948B6
:103DF00008F050F80020287008E001224CF255012C
:103E0000254808F047F80020287000BF00BFBDE833
:103E1000F0810000720000209C5B00209057002081
:103E2000810000200C7600208200002020760020F7
:103E30008300002034760020840000204876002093
:103E40004E00002085000020146600209400002011
:103E50007011010099000020400000205C860020C5
:103E60005000002034640020860000202400002040
:103E70002A000020280000203800002062000020D6
:103E80001A0000201B0000201C0000201F00002042
:103E9000200000201D0000201E00002000BFA9E01F
:103EA000022007F0A3F800205349C8705348FFF7D9
:103EB000ABFD5348007801287CD152480078042893
:103EC00020D15148007848B97822504801685048BC
:103ED000FEF7F6FF01204F4908708BE04A48007852
:103EE0000228DCD14B4800780128D8D14748006827
:103EF000401C464908600920404908700020454997
:103F0000087077E04048007890B900204249087076
:103F100042490978C1EB0111414A02EBC100782204
:103F20003A490968FEF7CCFF01203E49087061E07C
:103F300035480078012827D13A480078012823D154
:103F400036480078022816DD782235497831344821
:103F5000FEF7DAF978223249F031A1F17800FEF764
:103F6000D3F978223049A1F17800FEF7CDF903208A
:103F70002A49087004E029480078401C2749087045
:103F800000202849087035E01F480078022831D108
:103F90002148007870BB1D48006820490978084412
:103FA0001A49086009201549087001201A4908704B
:103FB00020E0FFE71448007848B9782213480168E8
:103FC0001348FEF77DFF01201249087012E00E48E9
:103FD000007801280ED10F48007801280AD10B483B
:103FE0000068401C09490860092004490870002045
:103FF0000849087054E700001400002080000020E9
:1040000099000020400000202E0200209400002093
:104010005C86002055000020560000205000002043
:1040200034640020540000209C65002030B500223C
:104030008B071C0F0F2303FA04F20B4B8C1053F861
:1040400024309343084C8D1044F8253023468C10BF
:1040500053F824308C07240F00FA04F42343024C55
:104060008D1044F8253030BD080001402DE9F041A5
:10407000024600250026002000230024002791F896
:1040800003C00CF00F0591F803C00CF0100CBCF14C
:10409000000F03D091F802C04CEA050591F800C06A
:1040A000BCF1000F31D0146800202BE04FF0010C60
:1040B0000CFA00F3B1F800C00CEA03069E4220D1CE
:1040C00083004FF00F0C0CFA03F7BC4305FA03FC16
:1040D0004CEA040491F803C0BCF1280F06D14FF05C
:1040E000010C0CFA00FCC2F814C00AE091F803C0FD
:1040F000BCF1480F05D14FF0010C0CFA00FCC2F8DE
:1041000010C0401C0828D1D31460B1F800C0BCF125
:10411000FF0F34DD546800202EE000F1080C4FF052
:10412000010808FA0CF3B1F800C00CEA03069E423D
:1041300021D183004FF00F0C0CFA03F7BC4305FAB2
:1041400003FC4CEA040491F803C0BCF1280F05D12C
:1041500000F1080C08FA0CF8C2F8148091F803C0BA
:10416000BCF1480F07D100F1080C4FF0010808FA24
:104170000CF8C2F81080401C0828CED35460BDE86B
:10418000F0810000F0B50A4600230024002100253C
:1041900000F00046B6F1004F02D11D4EF16901E07A
:1041A0001B4E7168C0F3034583B200F44016B6F5A8
:1041B000401F08D121F07061154E766826F07066B8
:1041C000134F7E6012E000F48016B6F5801F06D112
:1041D000032606FA05F4A14341F0706106E0460D9E
:1041E000360103FA06F6B14341F0706122B1460D83
:1041F000360103FA06F6314300F00046B6F1004FEF
:1042000002D1034EF16101E0014E7160F0BD00008A
:10421000000001400246002093680B400BB10120D2
:1042200000E0002070474161704701617047000065
:104230002DE9F041ADF5007D04460E46FF27B84656
:104240007A1C0F4940A8FEF75FF87A1C0D496846B2
:10425000FEF75AF809E014F8010B80EA070540A8B8
:10426000405D80EA08071DF80580301EA6F10101B7
:104270008EB2F0D148EA07200DF5007DBDE8F0814F
:10428000C0F20008C0F300082DE9F04F8BB00446DF
:104290008946924614B1012C4ED14EE05146484613
:1042A000FEF7D9F80746FEF727FB05460022584BD4
:1042B000FEF75AFACDE9080151464846FEF7CBF819
:1042C0000390FEF719FB07460022514BFEF74CFA0C
:1042D000CDE90401FEF7F7FA8346FEF7D3FA054667
:1042E00000224C4BFEF727F9CDE90601DDE9082352
:1042F000FEF716FB0FD251464846FEF7ACF8834650
:10430000FEF7FAFA07460022414BFEF72DFA054662
:10431000FEF7D9FA0FE051464846FEF79CF883466F
:10432000FEF7EAFA07460022394BFEF71DFA05466A
:10433000FEF7C9FA401C0A9065E051464846FEF770
:104340008AF88346FEF7D8FA05460022304BFEF77E
:104350000BFA0746304A314BFEF706FACDE9080161
:1043600051464846FEF777F80190FEF7C5FA074632
:104370000022274BFEF7F8F9274A284BCDE9020126
:10438000FEF7F2F9CDE90401FEF79DFA8346FEF748
:1043900079FA054600221F4BFEF7CDF8CDE906015C
:1043A000DDE90823FEF7BCFA15D251464846FEF770
:1043B00052F88346FEF7A0FA0022154BCDE908011A
:1043C000FEF7D2F90746144A144BFEF7CDF905461D
:1043D000FEF779FA15E051464846FEF73CF8834669
:1043E000FEF78AFA00220A4BCDE90801FEF7BCF974
:1043F0000546094A094BFEF7B7F90746FEF763FA87
:10440000401C0A9000BF00BF0A980BB0BDE8F08FB7
:104410000088C3400000E03F3D9B559FABADF53F9A
:1044200010B504460948007884420DD040F21310BC
:1044300060434FF4304202EBC00140F6980204485A
:1044400006F028FA0148047010BD00005E0000204C
:104450009C5B002010B5A2B0642109A8FDF76DFF98
:10446000D6A103C9CDE907011C22D6496846FDF74C
:104470004BFF01220021D44806F00CFAD248017803
:10448000D2A00AF093FAD0480078FF287ED12021EC
:10449000C80106F08BF920214FF4504006F086F950
:1044A00020214FF4604006F081F920214FF4704044
:1044B00006F07CF92021C80206F078F920214FF49B
:1044C000883006F073F901224FF42041C14807F00B
:1044D000E1FC01225103C04807F0DCFC01224FF44B
:1044E0004051BE4807F0D6FC01229103BC4807F0BA
:1044F000D1FC02224FF4A041BA4807F0CBFC4FF4A4
:10450000A051B948008806F05DFA0122D103B748EE
:1045100007F0C0FC002415E007A8005DB44901F8CD
:1045200034005DF8240001EBC401486048F2020247
:1045300002EBC401AE4A02EBC400082207F0AAFC59
:10454000601C84B2A94800788442E5DB00240DE0B9
:1045500040F2131060434FF4304202EBC00140F6CA
:104560009802A44807F096FC601C84B2252CEFDB6F
:104570004FF45041A048006806F035FA01224CF291
:1045800014019E4807F086FC9D4900E04AE0098836
:1045900088B24FF4604106F015FA4FF47041994823
:1045A000006806F020FA4FF480319748008806F042
:1045B00009FA4FF488319548006806F014FA012290
:1045C0004CF22D01924807F065FC01224CF23201B9
:1045D000904807F05FFC01224CF237018E4807F04B
:1045E00059FC01224CF23C018C4807F053FC01229B
:1045F0004CF24B018A4807F04DFC01224CF250016D
:10460000884807F047FC01224CF25501864807F024
:1046100041FC01206C490870012200216A4807F022
:1046200039FCC9E001224FF420416A4806F032F912
:10463000684802784AF201017C4806F02BF97B4970
:104640007BA00AF0B3F901225103634806F022F976
:104650006148027842F20101774806F01BF9764979
:1046600073A00AF0A3F901224FF440515B4806F011
:1046700011F95A48027843F20101704806F00AF92C
:104680006E496BA00AF092F901229103544806F09A
:1046900001F95348027844F20101694806F0FAF83A
:1046A000674963A00AF082F94FF4A04006F01CF9B4
:1046B0004C49088000240FE0C4EBC4024FF4C0430F
:1046C00003EB8201C4EBC4025E4B03EB82001C22AD
:1046D00006F0E0F8601C84B2424800888442EBDBBC
:1046E0004FF4A05006F000F93F4908800122D103A1
:1046F0003E4806F0CFF800240BE048F2020202EB3D
:10470000C4013B4A02EBC400082206F0C3F8601C57
:1047100084B2364800788442EFDB4FF4504006F014
:10472000F5F83549086001224CF21401334806F0CF
:10473000B1F84FF4604006F0D7F800B23049088075
:104740004FF4704006F0E2F82E4908604FF48030D4
:1047500006F0CAF82C4908804FF4883006F0D6F8E5
:104760002A49086001224CF22D01294806F092F8EE
:1047700001224CF23201274806F08CF801224CF25B
:104780003701254806F086F801224CF23C01234807
:1047900006F080F801224CF24B01214806F07AF82D
:1047A00001224CF250011F4806F074F801224CF22D
:1047B00055011D4806F06EF822B010BD0102030439
:1047C0000506070034F200089000002025640D0A59
:1047D00000000000840000208300002082000020F0
:1047E00081000020720000204E0000208500002083
:1047F000146600209C5B0020240000202A0000207A
:1048000028000020380000206200002094000020D2
:104810001A0000201B0000201C0000201F000020A8
:10482000200000201D0000201E00002048760020EF
:1048300025730D0A00000000347600202076002049
:104840000C760020905700202DE9F04F87B00446E9
:10485000894614B1012C5ED11FE04846FEF74CF8A2
:10486000074688464846FEF71AF80590FEF70AF80C
:10487000054600222A4BFDF75EFE82463A46434635
:10488000FEF74EF803D24846FEF709F803E0484623
:10489000FEF705F8401C06903DE04846FEF72CF870
:1048A0000546204A204BFDF75FFFCDE9040148464D
:1048B000FEF722F805461B4A1B4BFDF755FF07463E
:1048C000FEF701F80190FDF7DDFF82460022144B50
:1048D000FDF731FECDE90201DDE90423FEF720F802
:1048E0000BD24846FEF708F807460E4A0E4BFDF776
:1048F0003BFF0546FDF7E7FF0BE04846FDF7FCFFF1
:104900000746084A084BFDF72FFF0546FDF7DBFF7A
:10491000401C069000BF00BF069807B0BDE8F08FAE
:104920000000E03F3D9B559FABADF53F2DE9F04FBB
:1049300089B0044689464846FDF78EFF80462146E9
:10494000FDF789FD0546FDF7D7FF06460022294BF6
:10495000FDF70AFFCDE906014846FDF77DFF214638
:104960000190FDF778FD8346FDF7C6FF074600225C
:10497000204BFDF7F9FECDE90201FDF7A4FF8246C9
:10498000FDF780FF054600221B4BFDF7D4FDCDE966
:104990000401DDE90623FDF7C3FF12D24846FDF707
:1049A0005BFF83462146FDF756FD8246FDF7A4FFD7
:1049B000074600220F4BFDF7D7FE0546FDF783FFA4
:1049C00012E04846FDF748FF83462146FDF743FDC8
:1049D0008246FDF791FF07460022064BFDF7C4FE15
:1049E0000546FDF770FF401C0890089809B0BDE827
:1049F000F08F00000088C3400000E03F2DE9F04741
:104A0000044689464FF0000AB9F1000F06D0B9F10B
:104A1000010F10D0B9F1020F1CD10EE02046FDF7B6
:104A20006BFF074600220D4BFDF72CFE0546FDF7F8
:104A30008FFF82460EE0A2460CE02046FDF75CFFA9
:104A400007460022064BFDF71DFE0546FDF780FFD9
:104A5000824600BF00BF5046BDE8F08700002440FA
:104A6000002062402DE9F04F87B00446894614B11A
:104A7000012C5ED11FE04846FDF73EFF0746884601
:104A80004846FDF70CFF0590FDF7FCFE05460022A9
:104A90002A4BFDF750FD82463A464346FDF740FF5C
:104AA00003D24846FDF7FBFE03E04846FDF7F7FE5C
:104AB000401C06903DE04846FDF71EFF0546204A93
:104AC000204BFDF751FECDE904014846FDF714FFE8
:104AD00005461B4A1B4BFDF747FE0746FDF7F3FE55
:104AE0000190FDF7CFFE82460022144BFDF723FD17
:104AF000CDE90201DDE90423FDF712FF0BD24846A0
:104B0000FDF7FAFE07460E4A0E4BFDF72DFE054651
:104B1000FDF7D9FE0BE04846FDF7EEFE0746084AD2
:104B2000084BFDF721FE0546FDF7CDFE401C069023
:104B300000BF00BF069807B0BDE8F08F0000E03F5F
:104B40003D9B559FABADF53F70B505460E461446EF
:104B500024B1012C08D0022C12D10BE009A231465D
:104B6000284607F023FE0BE007A23146284607F04F
:104B70001DFE05E005A23146284607F017FE00BFDE
:104B800000BF70BD426172004D70610050736900DA
:104B900070B504460D4615B1012D24D111E014B1B4
:104BA000012C0CD105E011A20221002007F0FEFD2E
:104BB00005E011A20221002007F0F8FD00BF00BFB0
:104BC00011E014B1012C0CD105E00DA2022100204E
:104BD00007F0ECFD05E00CA20221002007F0E6FD45
:104BE00000BF00BF00BF00BF70BD0000496D706511
:104BF0007269616C000000004D65747269630000A9
:104C0000D3A2D6C600000000B9ABD6C60000000093
:104C100070B505460C46002D7DD1092C36D2DFE853
:104C200004F00536679ACBFDFCFBFA0041F6DF0283
:104C30000121002007F022FC41F6DF0202210020C2
:104C400007F01CFC41F6DF020321002007F016FCF0
:104C500041F6DF020421002007F010FC41F6DF02DC
:104C60000521002007F00AFC41F6DF0206210020A2
:104C700007F004FC41F6DF020721002007F0FEFBED
:104C800041F6DF020821002007F0F8FB8EE14FF625
:104C9000E6720121002007F0F1FB41F6DF0202215C
:104CA000002007F0EBFB41F6DF020321002007F0B4
:104CB000E5FB41F6DF020421002007F0DFFB41F6AF
:104CC000DF020521002007F0D9FB41F6DF020621B3
:104CD000002007F0D3FB41F6DF020721002007F098
:104CE000CDFB41F6DF020821002007F0C7FB5DE1A4
:104CF00041F6DF020121002007F0C0FB4FF6E6720B
:104D00000221002007F0BAFB41F6DF020321002058
:104D100007F0B4FB00E04AE141F6DF020421002085
:104D200007F0ACFB41F6DF020521002007F0A6FBEF
:104D300041F6DF020621002007F0A0FB41F6DF026A
:104D40000721002007F09AFB41F6DF02082100202E
:104D500007F094FB2AE141F6DF020121002007F071
:104D60008DFB41F6DF020221002007F087FB4FF6A2
:104D7000E6720321002007F081FB41F6DF020421E7
:104D8000002007F07BFB41F6DF020521002007F041
:104D900075FB41F6DF020621002007F06FFB41F6AC
:104DA000DF020721002007F069FB41F6DF0208213E
:104DB000002007F063FBF9E041F6DF02012100204B
:104DC00007F05CFB41F6DF020221002007F056FBF2
:104DD00041F6DF020321002007F050FB4FF6E67298
:104DE0000421002007F04AFB41F6DF0205210020E4
:104DF00007F044FB41F6DF020621002007F03EFBEE
:104E000041F6DF020721002007F038FB41F6DF0200
:104E10000821002003E098E066E034E002E007F0BB
:104E20002DFBC3E041F6DF020121002007F026FB45
:104E300041F6DF020221002007F020FB41F6DF02ED
:104E40000321002007F01AFB41F6DF0204210020B5
:104E500007F014FB4FF6E6720521002007F00EFB69
:104E600041F6DF020621002007F008FB41F6DF02D1
:104E70000721002007F002FB41F6DF020821002095
:104E800007F0FCFA92E041F6DF020121002007F072
:104E9000F5FA41F6DF020221002007F0EFFA41F6B1
:104EA000DF020321002007F0E9FA41F6DF020421C6
:104EB000002007F0E3FA41F6DF020521002007F0A9
:104EC000DDFA4FF6E6720621002007F0D7FA41F628
:104ED000DF020721002007F0D1FA41F6DF020821A6
:104EE000002007F0CBFA61E041F6DF02012100204B
:104EF00007F0C4FA41F6DF020221002007F0BEFAF3
:104F000041F6DF020321002007F0B8FA41F6DF0284
:104F10000421002007F0B2FA41F6DF02052100204B
:104F200007F0ACFA41F6DF020621002007F0A6FAEE
:104F30004FF6E6720721002007F0A0FA41F6DF02E3
:104F40000821002007F09AFA30E041F6DF02012143
:104F5000002007F093FA41F6DF020221002007F05B
:104F60008DFA41F6DF020321002007F087FA41F6AF
:104F7000DF020421002007F081FA41F6DF0205215B
:104F8000002007F07BFA41F6DF020621002007F03F
:104F900075FA41F6DF020721002007F06FFA4FF69D
:104FA000E6720821002007F069FA00BFA5E3012D91
:104FB0007ED1062C22D2DFE804F00322416081A0DA
:104FC00041F6DF020121084607F058FA41F6DF02F8
:104FD0000321012007F052FA41F6DF0204210120EB
:104FE00007F04CFA41F6DF020521012007F046FAEE
:104FF00041F6DF020721012007F040FA9CE04FF65E
:10500000E6720121084607F039FA41F6DF02032172
:10501000012007F033FA41F6DF020421012007F0F6
:105020002DFA41F6DF020521012007F027FA41F6AB
:10503000DF020721012007F021FA7DE041F6DF02BF
:105040000121084607F01AFA4FF6E6720321012003
:1050500007F014FA41F6DF020421012007F00EFAEE
:1050600041F6DF020521012007F008FA41F6DF02D0
:105070000721012007F002FA5EE041F6DF0201217C
:10508000084607F0FBF941F6DF020321012007F093
:10509000F5F94FF6E6720421012007F0EFF941F629
:1050A000DF020521012007F0E9F941F6DF0200E007
:1050B00043E00721012007F0E1F93DE041F6DF027E
:1050C0000121084607F0DAF941F6DF020321012049
:1050D00007F0D4F941F6DF020421012007F0CEF9F0
:1050E0004FF6E6720521012007F0C8F941F6DF020C
:1050F0000721012007F0C2F91EE041F6DF0201217D
:10510000084607F0BBF941F6DF020321012007F052
:10511000B5F941F6DF020421012007F0AFF941F6AD
:10512000DF020521012007F0A9F94FF6E6720721F9
:10513000012007F0A3F900BFDFE2022D7DD1052C8D
:105140001CD2DFE804F0031C354E670041F6DF0295
:105150000121022007F092F941F6DF020221084600
:1051600007F08CF941F6DF020421022007F086F9EE
:1051700041F6DF020621022007F080F965E04FF6D4
:10518000E6720121022007F079F941F6DF020221DF
:10519000084607F073F941F6DF020421022007F008
:1051A0006DF941F6DF020621022007F067F94CE0B5
:1051B00041F6DF020121022007F060F94FF6E672A6
:1051C0000221084607F05AF941F6DF0204210220C5
:1051D00007F054F941F6DF020621022007F04EF9EC
:1051E00033E041F6DF020121022007F047F941F6E2
:1051F000DF020221084607F041F94FF6E67204216A
:10520000022007F03BF941F6DF020621022007F0F9
:1052100035F91AE041F6DF020121022007F02EF9EC
:1052200041F6DF020221084607F028F941F6DF02C5
:105230000421022007F022F900E007E04FF6E672B1
:105240000621022007F01AF900BF56E2032D7CD197
:10525000062C22D2DFE804F00322416081A041F64F
:10526000DF020121032007F009F941F6DF020221E4
:10527000032007F003F941F6DF020321084607F097
:10528000FDF841F6DF020421032007F0F7F841F6AC
:10529000DF020621032007F0F1F89CE04FF6E672EA
:1052A0000121032007F0EAF841F6DF020221032082
:1052B00007F0E4F841F6DF020321084607F0DEF8C4
:1052C00041F6DF020421032007F0D8F841F6DF029F
:1052D0000621032007F0D2F87DE041F6DF0201212C
:1052E000032007F0CBF84FF6E6720221032007F007
:1052F000C5F841F6DF020321084607F0BFF841F682
:10530000DF020421032007F0B9F841F6DF0206218D
:10531000032007F0B3F85EE041F6DF02012103202D
:1053200007F0ACF841F6DF020221032007F0A6F8EF
:105330004FF6E6720321084607F0A0F841F6DF02B7
:105340000421032007F09AF800E045E041F6DF026F
:105350000621032007F092F83DE041F6DF0201212B
:10536000032007F08BF841F6DF020221032007F04B
:1053700085F841F6DF020321084607F07FF84FF673
:10538000E6720421032007F079F841F6DF020621D6
:10539000032007F073F81EE041F6DF02012103202D
:1053A00007F06CF841F6DF020221032007F066F8EF
:1053B00041F6DF020321084607F060F841F6DF02FC
:1053C0000421032007F05AF84FF6E6720621032065
:1053D00007F054F800BF90E1042D7DD1052C1CD2BC
:1053E000DFE804F0031C354E670041F6DF020121BF
:1053F000042007F043F841F6DF020221042007F001
:105400003DF841F6DF020421084607F037F841F67F
:10541000DF020621042007F031F865E04FF6E6725E
:105420000121042007F02AF841F6DF0202210420BE
:1054300007F024F841F6DF020421084607F01EF8C1
:1054400041F6DF020621042007F018F84CE041F68F
:10545000DF020121042007F011F84FF6E672022165
:10546000042007F00BF841F6DF020421084607F09C
:1054700005F841F6DF020621042006F0FFFF33E0C5
:1054800041F6DF020121042006F0F8FF41F6DF02B9
:105490000221042006F0F2FF4FF6E67204210846CE
:1054A00006F0ECFF41F6DF020621042006F0E6FFDD
:1054B0001AE041F6DF020121042006F0DFFF41F689
:1054C000DF020221042006F0D9FF41F6DF020421A9
:1054D000084606F0D3FF00E007E04FF6E67206212B
:1054E000042006F0CBFF00BF07E1052DFCD1072CFF
:1054F00029D2DFE804F004294E7392B7DC0041F6AC
:10550000DF020121052006F0B9FF41F6DF0202218A
:10551000052006F0B3FF41F6DF020321052006F067
:10552000ADFF41F6DF020421052006F0A7FF41F69A
:10553000DF020521084606F0A1FF41F6DF02072140
:10554000052006F09BFFD7E04FF6E672012105200B
:1055500006F094FF41F6DF020221052006F08EFFDF
:1055600041F6DF020321052006F088FF41F6DF0245
:105570000421052006F082FF41F6DF0205210846DE
:1055800006F07CFF41F6DF020721052006F076FFDA
:10559000B2E041F6DF020121052006F06FFF4FF671
:1055A000E6720221052006F069FF41F6DF020321C1
:1055B000052006F063FF41F6DF020421052006F016
:1055C0005DFF41F6DF020521084606F057FF41F670
:1055D000DF020721052006F051FF8DE041F6DF02D2
:1055E0000121052006F04AFF41F6DF0202210520D5
:1055F00006F044FF4FF6E6720321052006F03EFF59
:1056000041F6DF020421052006F038FF41F6DF02F3
:105610000721052006F032FF6EE041F6DF0201218E
:10562000052006F02BFF41F6DF020221052006F0DF
:1056300025FF41F6DF020321052006F01FFF4FF68C
:10564000E6720421052006F019FF41F6DF0205216C
:10565000084606F013FF41F6DF020721052006F099
:105660000DFF49E041F6DF020121052006F006FFAB
:1056700041F6DF020221052006F000FF41F6DF02BD
:105680000321052006F0FAFE41F6DF020421052081
:1056900006F0F4FE4FF6E6720521084606F0EEFE2F
:1056A00041F6DF020721052006F0E8FE24E041F67E
:1056B000DF020121052006F0E1FE41F6DF020221B2
:1056C000052006F0DBFE41F6DF020321052006F08F
:1056D000D5FE41F6DF020421052006F0CFFE41F69B
:1056E000DF020521084606F0C9FE4FF6E6720721E3
:1056F000052006F0C3FE00BF00BF70BDF8B504462C
:105700000D461646002003463246294600902046A4
:1057100007F006F8F8BD10B50446062C1CD2DFE8E9
:1057200004F003070B0F1317002006F0F5FE13E03B
:10573000012006F0F1FE0FE0022006F0EDFE0BE086
:10574000032006F0E9FE07E0042006F0E5FE03E092
:10575000052006F0E1FE00BF00BF10BD10B50446F5
:1057600014B1012C14D109E00AA20121002007F094
:105770001DF80021084606F0ADFE09E007A2012150
:10578000002007F013F80021012006F0A3FE00BF5F
:1057900000BF10BD456E676C69736800D6D0CEC47B
:1057A0000000000010B5044614B1012C0CD105E036
:1057B00006A20321012006F0F9FF05E004A203215F
:1057C000012006F0F3FF00BF00BF10BD4E2E6D009C
:1057D00046742E6C627300002DE9FF5F81468A4695
:1057E000B9F1000F03D0B9F1010F67D12DE03649AF
:1057F0005046FCF730FE04462046FDF77DF805468E
:105800000E462046FDF74BF80190FDF73BF80022CD
:105810002E4BCDE90201FCF78EFE07462A463346A1
:10582000FDF77EF803D22046FDF739F803E0204665
:10583000FDF735F8401C8346002003465A460221F6
:105840000090012006F06CFF38E01F495046FCF73D
:1058500002FE8346FDF750F807461D4A1D4BFCF734
:1058600083FF0546FDF774F804462046FDF744F82B
:10587000074688462046FDF712F80190FDF702F82A
:1058800005460022114BFCF756FE3A464346CDE949
:105890000201FDF745F803D22046FDF700F803E0CA
:1058A0002046FCF7FCFF401C8346002003465A4676
:1058B00002210090012006F033FF00BF00BF204608
:1058C00004B0BDE8F09F000000008C420000E03F03
:1058D0003D9B559FABADF53F2DE9FC5F82468B4666
:1058E0001446994600200190B9F1000F06D0B9F195
:1058F000010F18D0B9F1020F34D11EE02046FCF799
:10590000FBFF07460022194BFCF7BCFE0546FDF7DE
:105910001FF8019000200123009059465046019A3B
:1059200006F0B8FE1EE0019401200346009059469F
:105930005046019A06F0AEFE14E02046FCF7DCFF6C
:10594000074600220A4BFCF79DFE0546FDF700F8CE
:10595000019000200123009059465046019A06F01C
:1059600099FE00BF00BFBDE8FC9F0000000024407E
:105970000020624070B505460E461446C4EBC400D4
:10598000034901EB80023146284606F00FFF70BD47
:1059900090570020F8B504460D46164600200346F1
:1059A000324629460090204606F0BAFEF8BD0000B7
:1059B00070B505460E46144614B1012C0CD105E015
:1059C00006A23146284606F0F1FE05E004A2314663
:1059D000284606F0EBFE00BF00BF70BD4E2E6D00E6
:1059E00046742E6C627300008EB000200D9000BFD4
:1059F0000C900B900A900990089000BF00BF04F033
:105A00004FBD052005F0F2FA0020F9494870202129
:105A1000F848FEF708FCF8480088FFF77CFEF748D6
:105A2000007806F00DFFF649086008460068FCF7AC
:105A300018FF0022F34BCDE90401FCF795FECDE9F8
:105A40000601FCF785FF0D90EC480078FEF7E8FCB6
:105A5000ED480278ED480178ED48007806F054FBF7
:105A6000EC490860EC48ED49097810F831000A90DB
:105A7000E948EA49097800EBC100406809900999B2
:105A80000D98FEF753FFE649086008460068FCF7EA
:105A9000DAFE01460790E3480078FEF7D5FE08904D
:105AA00006F072FBE048007820B9012004F0ACFD5C
:105AB0000C9009E0DC480078012805D1DB4800782B
:105AC0000C900020D8490870CB480088282884F022
:105AD000E684DFE810F02800CA08080F2B13971996
