:020000040800F2
:10000000804000204501000847230008791F0008B0
:1000100045230008D1140008ED3D00080000000051
:10002000000000000000000000000000732E000827
:100030003915000800000000B7010008C5330008AA
:100040005F0100085F0100085F0100085F01000810
:100050005F0100085F0100080D1600085F0100083D
:100060005F0100085F0100085F0100085F010008F0
:100070005F0100085F0100085F0100085F010008E0
:100080005F0100085F0100085F0100085F010008D0
:100090005F0100085F0100085F0100085F010008C0
:1000A0005F0100085F0100085F0100085F010008B0
:1000B0005F010008293400085F0100085F010008A3
:1000C0005F0100085F0100085F0100085F01000890
:1000D0005F010008553800085F0100085F01000853
:1000E0005F0100085F0100085F0100085F01000870
:1000F0005F0100085F0100085F0100085F01000860
:100100005F0100085F0100085F0100085F0100084F
:100110001D3800085F0100085F0100085F0100084A
:100120005F0100085F0100085F0100085F0100082F
:10013000DFF80CD000F0C6FC00480047254A000854
:10014000804000200648804706480047FEE7FEE75B
:10015000FEE7FEE7FEE7FEE7FEE7FEE7FEE7FEE777
:10016000D933000831010008EFF3108072B67047F0
:1001700080F310887047204C204D25604FF000041C
:1001800084F309881E4C4FF0010525701D4C4FF07B
:100190008055256062B6FEE730B41A4C4FF08055AA
:1001A000256030BC704730B4164C4FF08055256048
:1001B00030BC704700BF72B6EFF3098028B1203819
:1001C00080E8F00F10490968086000B50F488047C3
:1001D0005DF804EB0E480F490A7802700A480E4990
:1001E0000A680260106890E8F00F203080F30988F8
:1001F0004EF0040E62B6704720ED00E00000FFFFF5
:100200009B00002004ED00E0B4000020B9280008A5
:100210009800002099000020BC00002040EA010363
:100220009B0703D009E008C9121F08C0042AFAD2AC
:1002300003E011F8013B00F8013B521EF9D2704770
:1002400010B5044604E00B7800F8013B03B1491CEB
:10025000521EF8D2204610BD30B505460020034698
:1002600000E05B1C934205D2EC5CC85C201A01D113
:10027000002CF6D130BDF0B480EA0102D40F420068
:10028000B2EB410F02D20246084611464A0042D064
:10029000C30DDDB2C1F3C752AD1A202D35DAC1F35B
:1002A000160141F4000204B15242C5F1200602FADF
:1002B00006F12A411044B3EBD05F23D0C4B1012D25
:1002C000A0EBC35009DCF0BC4FF0004202EAC3527D
:1002D000DBB200F5000000F052BB400000F180707E
:1002E00000EBC350A0F1807040EAD170490009E0F2
:1002F000490841EAC071A0EBC35000F50000400876
:1003000000EBC350F0BC00F031BB6142012202EBB4
:100310004101001BF6E7F0BC704781F00041AAE7FD
:1003200080F00040A7E780EA010210B502F0004328
:10033000400022D04A001FD0010E01EB1261C0F331
:100340005600C2F3560240F4000042F40002A0FB43
:10035000022000047F39140400D0401C50EA1240EF
:1003600001D44000491EC2B20C0604EBD010401C60
:100370004008802A02D003E0002010BD20F00100D8
:10038000002900DA0020184310BD30B480EA0102D1
:1003900002F0004530F0004221F0004013D090B14F
:1003A000C30DD40DC2F31601C0F31600E41A41F4D4
:1003B000000140F400027D34914201D3641C00E04E
:1003C0004900002C02DA30BC002070474FF40000D6
:1003D0000023914201D3891A034340084FEA4101A7
:1003E000F7D151B1914202D14FF0004105E002D264
:1003F0004FF0010101E06FF0010103EBC45028440C
:1004000030BC00F0B3BA2DE9FE4F804681EA03000C
:10041000C00F0C46009021F0004123F00045B8EBDE
:100420000200A94105D24046214690461C460B4693
:10043000024623F00040104347D0270DC7F30A00BF
:10044000C3F30A510290401A019040286BDAC3F3BB
:10045000130040F4801B0098924620B10023D2EB99
:10046000030A63EB0B0B01985946C0F1400250465A
:1004700000F04BFA06460D4650465946019A00F0E8
:1004800063FA10EB08006141002487EA115284EA04
:10049000E7731A4340D0009A62B3019A012A4FEAE7
:1004A000075215DC001B61EB02014FF0004202EA2B
:1004B0000752CDE90042001C41F5801132462B461F
:1004C00000F09AFA03B0BDE8F08F40462146F9E704
:1004D000001B61EB0201001C41F5801300185B4119
:1004E0002018A2F5001747EB030140EAD570B619B2
:1004F0006D4111E06D084FEA360645EAC0754FEAD6
:100500000752001B61EB0201001C41F580114908F4
:100510004FEA30000019514132462B4603B0BDE886
:10052000F04F00F05ABA0098012240000023D0EBAF
:10053000020263EBE073009821464FEAE074B8EBE7
:10054000000061EB0401E9E783F000435BE781F021
:10055000004158E72DE9FE4F81EA030404F000440E
:1005600021F0004100944FF0000B23F0004350EACB
:1005700001045ED052EA03045BD0C3F30A54C1F312
:100580000A552C44A4F2F3340194A0FB0254C1F3A5
:10059000130141F48011C3F3130343F4801301FBEF
:1005A000024400FB034E840A970A44EA815447EA56
:1005B0008357A4FB076802958D0A05FB07854FEA60
:1005C000932C04FB0C542705029D4FEA065847EA7A
:1005D0001637B5EB08056EEB070C870E920E47EA4F
:1005E000811742EA8312A7FB0201B6EB0B0164EB11
:1005F00000042B0D43EA0C335E1844EB1C50DA4622
:100600005146E7FB0201C5F313044FEA0B3343EAFB
:1006100014534FEA0432019C43EA0603A4F10C048C
:100620000294009CCDE900B400F0E6F903B0BDE807
:10063000F08F00200146F9E72DE9F04D81EA03042F
:1006400004F0004B21F0004514464FF0000A23F05F
:10065000004150EA050220D054EA01021DD0C5F342
:100660000A570246C5F31303C1F31300C1F30A5638
:1006700040F4801543F48013A7EB0608101BD64600
:1006800008F2FD3873EB050002D308F1010801E020
:1006900092185B41B8F1000F03DA00200146BDE873
:1006A000F08D00204FF48011064684460EE0171BA3
:1006B00073EB050705D3121B63EB050306434CEAF6
:1006C000010C49084FEA300092185B4150EA0107DB
:1006D000EDD152EA030012D082EA040083EA050158
:1006E000084305D0101BAB4106D20122002306E0CF
:1006F00000224FF0004302E06FF0010253101AEBAA
:1007000006004CEB085110EB0A0041EB0B01BDE871
:10071000F04D00F062B996230022114600F02FB987
:100720000EB540F2334102910021CDE900110A4695
:100730000B4600F061F903B000BD20F00040C10D90
:10074000C0F3160040F400007F2901DA0020704752
:10075000962903DCC1F19601C8407047963988405C
:100760007047C1F30A5210B5C1F3130140F2FF33D1
:1007700041F480119A4201DA002010BD40F2334367
:100780009A42A2F2334203DC524200F0CDF810BD8F
:10079000904010BD00F0004230F000400AD0C10D82
:1007A00001F56071C0F3160042EA0151C20840072A
:1007B00011437047002001467047000030B5041E09
:1007C00071F1000404DB4FF00044404264EB01018E
:1007D000141E73F1000405DB1C464FF00043524227
:1007E00063EB04038B4208BF824230BD30B5041E68
:1007F00071F1000404DB4FF00044404264EB01015E
:10080000141E73F1000405DB1C464FF000435242F6
:1008100063EB0403994208BF904230BD01F00043EE
:1008200030B421F0004150EA010206D00A0DA2F5D1
:100830006072C1F31301002A02DC30BC0020704753
:10084000440F44EAC104C100E01830BC00EBC250C0
:1008500000F08CB8002801DBC0F10040002901DB6A
:10086000C1F1004181427047002801DBC0F1004026
:10087000002901DBC1F100418842704730B50B46C9
:10088000014600202022012409E021FA02F59D42C0
:1008900005D303FA02F5491B04FA02F52844151E94
:1008A000A2F10102F1DC30BD2DE9F05F0546002028
:1008B00092469B4688460646814640241BE02846D1
:1008C00041464746224600F02FF853465A46C01A82
:1008D000914110D311461846224600F016F82D1A01
:1008E00067EB01084F4622460120002100F00DF879
:1008F00017EB00094E41201EA4F10104DFDC48463D
:1009000031462A464346BDE8F09F202A04DB203AC0
:1009100000FA02F1002070479140C2F1200320FA52
:1009200003F3194390407047202A04DB203A21FA50
:1009300002F00021704721FA02F3D040C2F12002F8
:100940009140084319467047202A06DBCB17203A0E
:1009500041FA02F043EAE07306E041FA02F3D040C4
:10096000C2F1200291400843194670470029A8BFF0
:100970007047401C490008BF20F00100704710B4C8
:10098000B0FA80FC00FA0CF050EA010404BF10BC7D
:10099000704749B1CCF1200421FA04F411FA0CF1AA
:1009A00018BF012121430843A3EB0C01CB1D4FEAE3
:1009B00000614FEA102042BF002010BC704700EBDE
:1009C000C35010440029A4BF10BC7047401C49000C
:1009D00008BF20F0010010BC704710B5141E73F161
:1009E000000408DA401C41F1000192185B411A43EF
:1009F00001D120F0010010BD2DE9F04D92469B463B
:100A000011B1B1FA81F202E0B0FA80F220329046E0
:100A1000FFF77BFF04460F4640EA0A0041EA0B015C
:100A200053465A46084313D0114653EA010019D0E1
:100A3000C8F140025046FFF777FF05460E46504684
:100A400059464246FFF761FF084305D0012004E004
:100A500020463946BDE8F08D0020054346EAE076A1
:100A60002C4337430A986305E40AA0EB08000022F0
:100A7000FD0A44EA47540A3002D500200146E9E75E
:100A8000010510196941DDE9084500196941BDE812
:100A9000F04DA2E7C1F30A52C1F3130140F2FF3354
:100AA00041F480119A4202DA00200146704740F278
:100AB00033439A42A2F2334202DC5242FFF734BF80
:100AC000FFF723BF064C074D06E0E06840F0010346
:100AD00094E8070098471034AC42F6D3FFF72CFB9C
:100AE0003C4E00085C4E0008054C064D00260120D7
:100AF00001F0E4FE267001F003FA2860F7E7000039
:100B000017000020280000202DE9F84389460546FB
:100B1000002402216846009401F0CEF81E4E1F4FBB
:100B2000DFF87C8015B1012D32D117E0BDF800004F
:100B3000FFF7F6FD00223346FFF70CFD00223B468F
:100B4000FFF708FD00224346FFF776FDFFF709FE99
:100B5000144902464B46A1F1C80016E0BDF8020058
:100B6000FFF7DEFD00223346FFF7F4FC00223B4690
:100B7000FFF7F0FC00224346FFF75EFDFFF7F1FDB3
:100B8000094902464B46A1F1C80003F04DFE044658
:100B90002046BDE8F88300000000044000E6AF40B6
:100BA000E0FFEF40E02E002070300020F8B501217A
:100BB000102002F0B3F80121082002F0AFF8012163
:100BC000042002F0ABF80121202002F0A7F8012157
:100BD000084602F0A3F82820ADF800001024174EB4
:100BE0008DF8034003258DF802506946304600F029
:100BF0006DFEADF8004048208DF803006946304690
:100C000000F064FE01210E4800F0B2FE0420ADF8B1
:100C100000008DF803400B4C8DF8025069462046C9
:100C200000F054FE0421204600F0D7FE0821304693
:100C300000F0D1FE052003F0BFFDF8BD000C01401F
:100C4000000230000014014070B50446FFF7AEFF0B
:100C50004FF4054000F074F8192003F0ADFD204674
:100C600002F072FBE54302E0204602F06DFBE9B2C0
:100C7000022000F081F8322003F09EFD012000F0F8
:100C800003F8A042F0D170BD70B50A4D04460421AE
:100C9000284600F0A0FE6006000E00F02BF800F0E1
:100CA0000BF800F009F804460421284600F095FEF0
:100CB000204670BD0014014070B500250C4E2C4636
:100CC0006006040E0821304600F087FE10213046F1
:100CD00000F07AFE08B1641CE4B20821304600F04E
:100CE0007AFE6D1CEDB2082DEAD3204670BD0000DF
:100CF000000C014070B50546002404210E4800F0A8
:100D00006AFE0E4E28064FF02001304602D500F054
:100D100064FE01E000F05FFE6806050E0821304623
:100D200000F05BFE0821304600F055FE641CE4B282
:100D3000082CE7D370BD000000140140000C0140F6
:100D400070B50C4D04460421284600F044FE200AEC
:100D5000FFF7D0FFE0B2FFF7CDFF0020FFF7CAFF9B
:100D60000020FFF7C7FF2846BDE87040042100F0CF
:100D700034BE00000014014070B50B4D0E46044611
:100D80000421284600F027FE012000EB4400C0B2F9
:100D9000FFF7B0FF3046FFF7ADFF2846BDE87040D3
:100DA000042100F01ABE0000001401404FF420405E
:100DB000FFF7C6BF2DE9F84F044616460846FFF771
:100DC000AAFC05463046FFF7A6FC2946FFF7DDFAE8
:100DD000CC49FFF7A8FA0646CB48864200DB064618
:100DE000DFF828B3CA4F0025DFF828834FF4805A74
:100DF000032C10D04FF00109022C24D00226012C24
:100E000079D0002C1DD198F800004446022873D0F8
:100E1000012872D064E1A8F8085098F8020044460E
:100E2000012808D15146BC4800F0D7FD8021584622
:100E300000F0D3FDA57002F08DFA65813D80A561BB
:100E40006561BDE8F88F01F083F84446C8F81800E2
:100E50002581E57084F8009084F80490A846A07875
:100E60004D4640B95146AC4800F0B5FD802158468A
:100E700000F0B1FDA570608938B90A98FFF74BFC06
:100E8000E061A6A002F0F8FF6581D4E90601FFF752
:100E9000E1FC7CD83146E068FFF7E6FC01D86078D9
:100EA00098B1A149E0680144B1F5C00F02D2617860
:100EB00001297ED09D498842C3DA60780028C0D1DC
:100EC00002F05EFA4FF48071DDE0E068FFF762FC4B
:100ED0008A468146964A974BFFF73CFB4A46534663
:100EE000FFF735FBFFF79AFC82466069FFF752FC7B
:100EF0000B46024602E098E0CAE0E0E08EA002F075
:100F0000BBFFA069FFF746FC02460B468EA002F02D
:100F1000B3FF92A00A9902F0AFFF9548A169814200
:100F200000DDA061D4E90501FFF7A5F98146606104
:100F30000A98FFF7F0FB4946FFF7EFF9E0615046EA
:100F4000FFF728FC81468B464A465B4689A002F0A3
:100F500093FF3046FFF71EFC0E46754A8B4B009000
:100F6000FFF7F8FA02460B4648465946FFF73EFCA3
:100F700011D33146864A874B0098FFF7EBFA0246B9
:100F80000B4648465946FFF719FC04D301E030E010
:100F90000FE0C4F820A0657002F0DCF9C4F81880F6
:100FA000A7F80080BDE8F84F4FF480715A4800F070
:100FB00014BD0B98C821484301F080FC84F80180DF
:100FC000C4F81880A7F800806069FFF7E3FB0246C9
:100FD0000B4671A002F050FFA069FFF7DBFB024651
:100FE0000B4671A002F048FF74A00A9902F044FF7A
:100FF00066E7E07900287FF424AFD4E90501FFF724
:101000003AF96062FFF7C6FB02460B4670A002F099
:1010100033FF02F09FF94FF480713F4800F0DDFC90
:10102000657184F80380E5710BE700F091FFC8F863
:101030001800A8F8085088F8045098F802004446B0
:1010400048B95146344800F0C6FC8021584600F0AB
:10105000C2FC84F80290E57026706448216A8142DF
:1010600001DA634900E06349E068FFF704F92062B0
:10107000FFF790FB02460B465FA002F0FDFE02F078
:101080007FF94FF40071BDE8F84F234800F0A3BC8E
:1010900002F060F94FF400711F4800F09EFCA06957
:1010A000FFF778FB3A4A5A4BFFF7C6FAFFF7B6FB51
:1010B000A56160623D8084F8039025700FE002F026
:1010C00049F93D80A5614FF480711348656100F0D6
:1010D00084FC6581E670E571657025706571A571A8
:1010E000208940F2DC51401C80B2208188429BD391
:1010F0004FF47A602081A078012895D100F01EFA83
:10110000A5709EE600401C4600008C420010014085
:101110007C0000201C000020000C01406F6E656CFC
:10112000696E650D0A000000000040BF000020410C
:101130007B14AE47E17AA43F31416E676C654D6127
:10114000726B3A25660D0A00315265636F72645FF7
:10115000416E676C653A25660D0A00003150726574
:101160007365745F416E676C653A25640D0A000013
:101170000000C04153656E645F5072657373757291
:101180006554656D703A25660D0A0000E17AF03FFE
:101190000AD7A3703D0AEF3F32416E676C654D611F
:1011A000726B3A25660D0A00325265636F72645F96
:1011B000416E676C653A25660D0A00003250726513
:1011C0007365745F416E676C653A25640D0A0000B3
:1011D00053656E645F416E676C6556616C75652022
:1011E0003D3D20252E32660D0A0000000000A04182
:1011F000000090400000404053656E645F5072658F
:10120000737375726556616C75653A25660D0A00D3
:101210003D0AF33F2DE9FF4F804681B01546084651
:10122000FFF779FA04462846FFF775FA2146FFF7DB
:10123000ACF88849FFF777F887490746884200DB12
:101240000F46874CDFF814A2DFF818B2A07800250B
:101250004FF48051B8F1030F10D0DFF80C92012643
:10126000B8F1020F1AD00227B8F1010F7ED0B8F101
:10127000000F7CD1207802287AD0C9E0258101288E
:1012800007D1584600F0A9FB8021504600F0A5FB8D
:10129000A57005B0BDE8F04F02F05CB8258126705E
:1012A000267138B9584600F096FB8021504600F070
:1012B00092FBA6704F4505DA4FF080413846FFF7A4
:1012C0002CF80746E068FFF765FA02460B4667A070
:1012D00002F0D2FD3946E068FFF7C6FA01D860781F
:1012E000A8B16649E0680144B1F5C00F02D2617847
:1012F00001295BD06249884239DA6078002836D10A
:1013000084F8035002F03CF84FF4807171E0E0681B
:10131000FFF740FADFF86C91884605464A465A4B7B
:10132000FFF718F92A464346FFF711F9FFF776FA57
:101330008046FFF72FFA8A4605460246534653A0D9
:1013400002F09AFD3846FFF725FA07464A46554B04
:101350000091FFF7FFF802460B4628465146FFF77B
:1013600045FA17D33846504A504B02E026E06DE06C
:1013700045E00099FFF7EEF802460B462846514635
:10138000FFF71CFA06D353462A4649A0C4F820802A
:1013900002F072FDE670667001F0DCFF05B05846A1
:1013A000BDE8F04F4FF4807100F017BB0498C821DE
:1013B000484301F083FAE5706570A3E72581257144
:1013C00038B9584600F007FB8021504600F003FB77
:1013D000A670E5702770216A494501DA3A4900E0B4
:1013E0003A49E068FEF747FF206201F0C9FF4FF479
:1013F000007105B05846BDE8F04F00F0ECBAE67059
:10140000257001F0A7FF4FF40071584600F0E5FA8F
:101410002078012809D1E7706570257001F09AFFE6
:101420004FF48071584600F0D8FA208940F2DC5120
:10143000401C80B22081884208D34FF47A6020811A
:10144000A078012802D100F079F8A57005B0BDE8B8
:10145000F08F000000401C4600008C42001001404C
:101460001C000020000C01400000A0414144435FEB
:1014700050203D3D2025660D0A000000000040BFC1
:10148000000020417B14AE47E17AA43F53656E64AF
:101490005F507265737375726554656D703A256639
:1014A0000D0A0000E17AF03F0AD7A3703D0AEF3F32
:1014B00053656E645F507265737375726556616CC7
:1014C00075653A25660D0A00000090400000404016
:1014D000FEE70000DFF848B0124D134E134FDFF85F
:1014E0005090DFF850804FF0010A0024022001F0F4
:1014F000E5F98021584600F06EFAEC70B069396861
:10150000884203DC99F80000012805D088F80040E3
:10151000054800F0BDFDE9E788F800A0E6E7000017
:10152000000C014017000020F82C0020440000208F
:101530005D000020700000207047000070B5114C65
:101540004FF48051204600F048FA4FF48041204685
:1015500000F043FA4FF40041204600F03EFA0A4DF5
:101560004021284600F039FA8021284600F035FA5B
:10157000A115204600F031FA61152046BDE8704003
:1015800000F02BBA000C01400010014000B585B0FE
:101590005A228DF800208DF80100080E8DF8020007
:1015A000080C8DF80300080A8DF804008DF805106A
:1015B0000621684600F054FB010A8DF806108DF8EC
:1015C00007000821684602F0F7FB052001F076F9D4
:1015D00005B000BD00B585B05A228DF800208DF809
:1015E00001008DF802100321684600F039FB010A62
:1015F0008DF803108DF804000521684602F0DCFB2D
:10160000052001F05BF905B000BD000010B5012018
:1016100000F014F8012808D104480188491C018011
:10162000BDE81040012000F003B810BD7C00002090
:10163000014908607047000014040140064A014651
:1016400000201268044B0A4014331B680B4202D07E
:10165000002A00D0012070470004014030B51A492B
:101660008379026853B30B6893430B600A1D1368B8
:101670000468A343136002790A441368046823438F
:101680001360114A083213680468A3431360131DE2
:101690001C680568AC431C604479102C05D02144BB
:1016A0000A68006802430A6030BD1168046821437B
:1016B0001160196800680143196030BD0079084461
:1016C00001689143016030BD0004014008B501216B
:1016D000052001F023FB04208DF803000120ADF864
:1016E000000003208DF802006946024800F0EEF881
:1016F00008BD00000008014010B5FFF7E7FF00F04B
:1017000017F8BDE81040AFF300801CB50021084673
:1017100000F0C8F800208DF8040008208DF80500BE
:10172000012000908DF806006846FFF797FF1CBD6A
:1017300008B506208DF8000002208DF80100002079
:101740008DF8020001208DF80300684600F000FECD
:1017500008BD00002DE9F041044600780025454E03
:101760004FF430470D2875D2DFE800F082070E18DD
:101770001F272E363F4A536175002021002000F0BC
:10178000CBFC0021306806E02021CF01384600F074
:10179000C3FC706827E000F0B1FD68E020210F0273
:1017A000384600F0B9FCB0681DE04FF440572021E6
:1017B000384600F0B1FCF06815E020214F023846B1
:1017C00000F0AAFC308A0EE04FF4A04720213846F2
:1017D00000F0A2FC706906E04FF4C04720213846B3
:1017E00000F09AFCB0693946D5E74FF4E046202175
:1017F000304600F091FC1F48012231461C3034E095
:1018000020218E02304600F087FC1B4831460068DC
:10181000C1E74FF410462021304600F07DFC202126
:10182000384600F079FC0822314614480CE04FF4A9
:1018300020462021304600F06FFC2021384600F081
:101840006BFC082231460E4800F02AFD0122394681
:101850000C480AE00CE04FF440462021304600F0EE
:101860005BFC0448012231461D3000F019FD257053
:10187000BDE8F081F82C0020440000206800002022
:10188000600000205D000020044C0025022001F0D3
:1018900015F8A5700248FFF75DFFF7E71700002075
:1018A0005900002010B58A0721F003040649130FE0
:1018B00021440F228C689A4094438C608A68984037
:1018C00002438A6010BD000000000140F0B5CA78F4
:1018D000002502F00F03D20601D58A7813430A7857
:1018E0004FF00F0E12F0FF0F4FF001021CD00468F2
:1018F0000F8802FA05F63740B74211D14FEA850C3E
:101900000EFA0CF724EA070703FA0CF43C43CF78ED
:10191000282F02D0482F02D002E0466100E0066185
:101920006D1C082DE4D304600C88FF2C1ED944687C
:101930005FF0000606F1080702FA07F50F882F404E
:10194000AF420FD14FEA860C0EFA0CF7BC4303FAF4
:101950000CF73C43CF78282F00D14561CF78482F32
:1019600000D10561761C082EE4D34460F0BD000070
:10197000F0B5144C002801DAE36900E06368420D19
:10198000120185B2C0F301579540C0F30346032FFF
:1019900005D0C2020AD50322B240934307E023F0E8
:1019A0007062636823F07063636002E0AB4343F0EE
:1019B000706201B12A43002801DAE261F0BD626081
:1019C000F0BD0000000001400246002092680A427B
:1019D00000D00120704741617047016170470000ED
:1019E0002DE9F84F80469B4615460846FEF793FEC4
:1019F00004462846FEF78FFE2146FEF7C6FC7D49C9
:101A0000FEF791FC7C490746884200DB0F467C4C80
:101A1000DFF8E891DFF8ECA1A07800254FF48051C1
:101A2000B8F1030F10D00126B8F1020F1BD0022726
:101A30004FF4007BB8F1010F78D0B8F1000F76D1E8
:101A40002078022874D0B4E02581012807D15046BF
:101A5000FFF7C3FF80214846FFF7BFFFA570BDE831
:101A6000F84F01F077BC25812670267138B95046B1
:101A7000FFF7B1FF80214846FFF7ADFFA67039465A
:101A8000E068FEF7F1FE01D86078A0B15E49E06839
:101A90000144B1F5C00F02D26178012959D05B49E8
:101AA000884244DA6078002841D1E57001F068FC92
:101AB0004FF4807170E0E068FEF76CFEDFF8509143
:101AC000884605464A46534BFEF744FD2A464346A0
:101AD000FEF73DFDFEF7A2FE8046FEF75BFE8B465D
:101AE000054602465B464CA002F0C6F93846FEF7B2
:101AF00051FE07464A464E4B0091FEF72BFD02462B
:101B00000B4628465946FEF771FE17D33846494A18
:101B1000494B0099FEF71EFD02460B4628465946E2
:101B2000FEF74CFE0AD32A465B4602E019E05EE06F
:101B300037E042A0C4F8208002F09EF9E67066709B
:101B400001F008FC5046BDE8F84F4FF48071FFF7F4
:101B500044BFC8210BFB01F000F0B0FEE5706570DA
:101B6000A4E72581257138B95046FFF734FF80215D
:101B70004846FFF730FFA670E57027703549206AA8
:101B8000884201DA344900E03449E068FEF773FB2B
:101B9000206201F0F5FB59465046BDE8F84FFFF7CB
:101BA0001ABFE670257001F0D5FB59465046FFF785
:101BB00014FF2078012809D1E7706570257001F0C5
:101BC000C9FB4FF480715046FFF707FF208940F2B0
:101BD000DC51401C80B22081884208D34FF47A60E7
:101BE0002081A078012802D1FFF7A8FCA570BDE8EC
:101BF000F88F000000401C4600008C42001001409D
:101C00001C000020000C0140000040BF00002041EB
:101C10007B14AE47E17AA43F53656E645F507265F2
:101C2000737375726554656D703A25660D0A000010
:101C3000E17AF03F0AD7A3703D0AEF3F53656E6427
:101C40005F507265737375726556616C75653A2580
:101C5000660D0A000000A0410000904000004040D6
:101C60002DE9F041ADF5007D0C460746FF254FF408
:101C700080782E4642460E496846FEF7CFFA424625
:101C80000C4940A8FEF7CAFA694640AA06E000BF20
:101C900017F8010B68400D5C7540165C641EE4B2D9
:101CA000F6D20DF5007D46EA0520BDE8F081000082
:101CB0003C4B00083C4C00082DE9F0470E4681469D
:101CC0000024104F19E004213846FFF784FE00205D
:101CD000FFF710F80020FFF70DF8FEF7EDFF804644
:101CE000FEF7EAFF054604213846FFF776FE45EA8F
:101CF000082129F81410641CE4B2B442E3D3BDE80F
:101D0000F0870000001401402DE9F05F01224FF43C
:101D10005041744800F076FA724F734CDFF8CC8172
:101D2000387804F11C06751C4FF480594FF4005AA2
:101D30004FF4405BFF284CD0002000F08DFA20606B
:101D4000484600F089FA6060504600F085FAA060CD
:101D5000584600F081FAE0604FF4804000F07CFAD1
:101D600020824FF4A04000F077FA60614FF4C04049
:101D700000F072FA5E4FA061B84200DBA761012259
:101D80004FF4E041304600F03DFA4FF4004000F0DF
:101D900063FAC8F80000B84201DBC8F800700822F6
:101DA0004FF41041534800F02DFA08224FF420411F
:101DB000514800F027FA01224FF430414F4800F01B
:101DC00021FA2846BDE8F05F01224FF4404100F0BF
:101DD00019BA2021002000F09FF92021484600F088
:101DE0009BF92021504600F097F92021584600F039
:101DF00093F92021480200F08FF920214FF4A040F0
:101E000000F08AF920214FF4C04000F085F920212C
:101E10004FF4E04000F080F92021880200F07CF9C6
:101E200020214FF4104000F077F920214FF420409A
:101E300000F072F920214FF4304000F06DF92021BC
:101E40004FF4404000F068F90021206800F056FA95
:101E50004946606800F052FA5146A06800F04EFA18
:101E60005946E06800F04AFA208A4FF4804100F0B9
:101E700045FA4FF4A041606900F040FA4FF4C041C8
:101E8000A06900F03BFA01224FF4E041304600F037
:101E900007FA4FF40041D8F8000000F02FFA0822AA
:101EA0004FF41041134800F0FBF908224FF4204191
:101EB000114800F0F5F901224FF430410F4800F0CD
:101EC000EFF901224FF44041284600F0E9F90120E2
:101ED0003870BDE8F05F02464FF45041014800F011
:101EE000DFB900005A000020F82C00204400002038
:101EF00080841E0068000020600000205D0000203B
:101F000010B516210020FEF7FFFDFEF704FC0C497A
:101F1000FEF703FAFEF73EFC00220A4BFEF78CFBAD
:101F20000022094BFEF716FBFEF778FCB0F5000F18
:101F300001DA002010BD05498842FBDB084610BDD0
:101F40000080F9440030BF400000594000008C423E
:101F5000064810B50088FEF7E3FB054A054BFEF77F
:101F6000F9FABDE81040FEF759BC00007C000020E3
:101F70000AD7A3703D0AD73FFEE7000002494CF69E
:101F8000CC400860704700000030004000F012B8FC
:101F900010B545F2555000F021F8042000F012F879
:101FA00040F2E24000F014F800F004F8BDE8104000
:101FB000FFF7E4BF02494AF6AA2008607047000014
:101FC0000030004001494860704700000030004088
:101FD00001498860704700000030004001490860F6
:101FE00070470000003000402DE9F0470127254CE4
:101FF000DFF89490254E4FF400783D0208B1277029
:1020000001E0207870B129463046FFF7DDFC78B159
:1020100041463046FFF7D8FC50B129464846FFF705
:10202000D3FC28B129464846FFF7CEFCE8B127E0AB
:10203000022000F043FC0020207029463046FFF7C4
:10204000C3FC01280CD041463046FFF7BDFC0128F7
:1020500009D029464846FFF7B7FC012801D00FE018
:102060000320BDE8F0870220FBE741463046FFF73A
:10207000ABFC28B929463046FFF7A6FC00B927700B
:102080000020EEE758000020000801400010014049
:102090002DE9FC47D0E900A9D0E90286058A047F32
:1020A000477F0120FFF7A0FF062C28D2DFE804F0CD
:1020B00003070F171F29BDE8FC47FFF73FBA02B01F
:1020C0003B464A465146BDE8F04701F067BA02B0C8
:1020D0003B4642465146BDE8F047FFF79BB802B089
:1020E0003B4632465146BDE8F047FFF779BC094907
:1020F000CDE900570B694A465146FEF75BFEBDE845
:10210000FC8702B03B464A465146BDE8F04700F026
:102110008DBF00001C00002070B50D46044600F085
:10212000FFF80F4E10213046FFF755FC284600F00F
:1021300055FE202D01D0D82D0AD1C4F3074000F060
:102140004DFEC4F3072000F049FEE0B200F046FE69
:1021500010213046FFF741FCBDE8704000F08AB81E
:102160000008014030B5012187B0080300F0D6FD1A
:102170000121042000F0D2FDE020ADF81400182069
:102180008DF817001D4D03248DF8164005A928462B
:10219000FFF79CFB1021ADF814108DF817108DF887
:1021A000164005A92846FFF791FB10212846FFF7A6
:1021B00014FC0020ADF800004FF48271ADF802105D
:1021C000ADF804000221ADF806100121ADF80810A9
:1021D0004902ADF80A100821ADF80C10ADF80E0058
:1021E0000720074CADF810006946204600F025FE98
:1021F0000121204600F00CFE07B030BD0008014070
:10220000003001402DE9F041124F0C4605461646BC
:1022100010213846FFF7DFFB032000F0DFFDC4F399
:10222000074000F0DBFDC4F3072000F0D7FDE0B26B
:1022300000F0D4FD002405E0002000F0CFFD05F8FB
:10224000010B641CB442F7D33846BDE8F0411021BD
:10225000FFF7C3BB000801400EB5014604226846E3
:10226000FFF7D0FF00989DF8031000BA20F0FF00A0
:1022700008430EBD10B5094C10212046FFF7ABFBFB
:10228000052000F0ABFD002000F0A8FD0028FAD1E9
:102290002046BDE810401021FFF79FBB0008014019
:1022A0002DE9F04116460D460746002400F038F8A7
:1022B000DFF8448010214046FFF78DFB022000F03C
:1022C0008DFDC5F3074000F089FDC5F3072000F040
:1022D00085FDE8B200F082FD03E0385D00F07EFD90
:1022E000641CB442F9D310214046FFF776FBBDE8E9
:1022F000F041FFF7BFBF0000000801400EB5020E1D
:102300008DF80020020C8DF80120020A8DF80220C1
:102310008DF8030004226846FFF7C2FF0EBD0000DF
:1023200010B5074C10212046FFF755FB062000F0A2
:1023300055FD2046BDE810401021FFF74EBB0000C0
:1023400000080140FEE770474FF4A06000F032B88B
:1023500070B50F23C47801780122F4B1144C2468BD
:10236000457804F4E064C4F5E064240AC4F104068A
:10237000E3408478B5401C402C4301F1E021230167
:1023800081F80034007800F01F018A404009800085
:1023900000F1E020C0F8002170BD01F01F00824074
:1023A0004809800000F1E020C0F8802170BD0000E5
:1023B0000CED00E002490843024908607047000044
:1023C0000000FA050CED00E070B586B000F086F86C
:1023D000344D00242C63AC70EC702C72EC71EC600A
:1023E000EC61AC616C616C70AC71204605F134013C
:1023F0000C54401CC0B20828FAD32C716C71AC622A
:102400002C6200F005FBC821274800F039FB264A62
:102410000020411C00EB80008BB202EB800003EB3C
:10242000830302EB83030470436088B20928F0D36E
:1024300000EB800002EB8000047044602A6100F031
:10244000C3FA00F027FB80261848CDE901064FF6B5
:10245000FF70009003253F23154A00211548CDE960
:10246000034500F0EFF805AA13A13F2000F03AF968
:102470000D480E4AC830CDE901064FF6FE700090B7
:102480003E23121F00211048CDE9034500F0DAF881
:1024900005AA0EA13E2000F025F906B0BDE8704067
:1024A00000F01DB89400002000320020C834002045
:1024B000C4360020292C000875432F4F532D49495D
:1024C0002049646C65000000452C000875432F4FBF
:1024D000532D4949205374617400000070477047C0
:1024E0000449C879012804D18878FF2801D2401C0A
:1024F000887070479400002070B5144CE079012872
:1025000022D1FDF731FE0546A07820B1401E10F023
:10251000FF00A07013D1E07888B900F0FFFA0C48F2
:10252000617950F82100A0622279914207D0816B35
:10253000491C8163E068401CE060FDF734FE2846DA
:10254000BDE87040FDF714BE70BD0000940000208F
:10255000C836002010B5094CE07900280CD100F0F5
:10256000DDFA60790649207151F82000A0622062EE
:10257000BDE81040FDF7FFBD10BD00009400002035
:10258000C836002010B5022000F098F9FDF7ECFDE8
:10259000084C0021E161FDF7EBFD142000F08EF9FD
:1025A000FDF7E2FDE169616101216170BDE8104064
:1025B000FDF7DEBD94000020704700002DE9FE43CA
:1025C0001C4615460F468046FDF7CEFD1A49097890
:1025D00021B1FDF7CDFD3C20BDE8FE83174E56F836
:1025E000241019B1FDF7C4FD2820F5E7012146F8B4
:1025F0002410FDF7BDFD00232A463946404600F071
:10260000D9F800250146009501952B462A4620461B
:10261000029500F093FA070007D0FDF7A5FD46F8F4
:102620002450FDF7A5FD3846D6E705480078012877
:10263000F9D100F04FFAF6E796000020C8360020E6
:102640009B0000202DE9FF4F83B01C46DDE9138677
:10265000DDE9119792468B46FDF786FD1D49097805
:1026600029B1FDF785FD3C2007B0BDE8F08F1A4D7C
:1026700055F8241019B1FDF77BFD2820F4E701215E
:1026800045F82410FDF774FD32463946484600F0FF
:1026900021FB334652465946039800F08BF80097C9
:1026A000CDE9018601464A462046109B00F046FAD5
:1026B000060008D0FDF758FD002145F82410FDF76D
:1026C00057FD3046D0E7054800780128F9D100F0E1
:1026D00001FAF6E796000020C83600209B00002093
:1026E0007047704770B5054611480E46144600788D
:1026F00010B11220107070BDFDF736FD0146FF2DA0
:1027000003D10C48006890F832500B4850F825006F
:10271000432540B1012806D0C6640846FDF728FDD0
:102720000020207070BD0846FDF722FD257070BDA9
:1027300096000020B4000020C8360020704700003A
:102740002DE9F0410446002008600D464860FDF781
:102750000BFD0146FF2C03D11448006890F832406D
:10276000134850F8240058B1012809D0027CD20740
:102770000CD0D0E9027600240846FDF7F9FC0BE006
:102780000846FDF7F5FC4320BDE8F0810846FDF75B
:10279000EFFC4520F8E7641C01CF0028FBD0A00027
:1027A0002860301B800068600020EDE7B400002046
:1027B000C83600204FF080731360131F1860A2F119
:1027C00008006FF001030360001F4FF01233036035
:1027D000001F4FF003330360001F4FF0023303600C
:1027E000001F5B100360001F0160001F4FF01131DC
:1027F0000160001F19010160001F4FF009310160E5
:10280000001FD9000160001F4FF007310160001F59
:102810004FF006310160001F4FF005310160980054
:1028200042F83C0D1046704770B50446FDF79CFC1D
:1028300003461D48FF2C006805D090F83200A042E6
:1028400004D1012503E090F83240FAE7002517484B
:1028500050F8240058B101280ED090F83420144CC0
:1028600090F83560A15CB143A1540AD00FE018463E
:10287000FDF77EFC482070BD1846FDF779FC43202B
:1028800070BD0C4990F836400A78A2430A7010F8DF
:10289000301F41F0080101701846FDF769FC0DB1C9
:1028A00000F018F9002070BDB4000020C8360020E8
:1028B000C80000209A0000207047000070B5044650
:1028C00013480078002821D11248007800281DD133
:1028D000002C1BD0FDF748FC03460F480F4D016844
:1028E00091F8340091F835602A5CB2432A5405D13E
:1028F0000B4891F836500278AA4302701846CC6211
:10290000FDF736FCBDE8704000F0E4B870BD000093
:102910009600002097000020B4000020C80000208E
:102920009A0000202DE9F04100F04CF8FDF71CFC66
:10293000234D296B491C2963FDF71AFCE87901280E
:102940003BD1687A0126002720B1012835D0022822
:1029500002D06F72EC6A2CE06E72FBE7FDF704FCAC
:10296000E16A19B3491EE16220D194F8301011F0E8
:10297000370F06D001F0C80184F8301084F83160B8
:1029800001E084F8317094F8301009070ED494F8FF
:102990003610AA791143A971094994F834203431C9
:1029A00094F835C08B5C43EA0C038B546469FDF7E3
:1029B000DFFB94F832003F28D0D1BDE8F081000061
:1029C000940000207047000010B550210D4800F021
:1029D00057F800200B4A0346411C02EB00108CB252
:1029E00002EB04140370446007A4C46088B2042896
:1029F000F2D302EB001004A103704360C1600348EE
:102A0000026010BDB83B00203F000000D000002055
:102A100000B54FF47C71164800F032F84FF4807125
:102A2000144800F02DF8124A0020411C0B46C9B290
:102A3000C0EBC00000EB4000C1EBC10102EB800025
:102A400001EB410102EB810141610BA1C164D8B2EC
:102A50000B28EAD3C0EBC00000EB400002EB800083
:102A600005A30021C364416104484262C16200BD04
:102A7000C8370020C83600203F0000009400002026
:102A8000002203E0491E00F8012B89B20029F9D188
:102A90007047000010B578210C48FFF7F1FF0B4A92
:102AA0000020411C8BB200EB400003EB430302EB20
:102AB000C30342F8303088B20428F2D300EB400060
:102AC000002142F830100248026010BD083C00208E
:102AD000D400002070B5FDF747FB0E4C0546A078EA
:102AE00098B9E07888B900F019F80B49607951F885
:102AF0002010A1622279904207D0886B401C886325
:102B0000E068401CE060FDF747FB2846BDE87040E8
:102B1000FDF72EBB94000020C83600200649054A68
:102B200001F134038879105C1B5CD25C02EBC000BD
:102B3000487170473C4D0008940000202DE9F05F7B
:102B40009846DDE90ABA91460D460746FDF70CFBAB
:102B5000324E746A002C5CD0616918347162FDF7E2
:102B600007FB44F8185CA776002525766576656135
:102B700044F80CBC44E905A90C9824F8080C24F886
:102B8000068CE577FA08227707F00701012000FAA2
:102B900002F2E176A277884060776560E560A56023
:102BA0002562A56265621EA0E562C4E90C500020A2
:102BB000B4F1180404EB8001401C0D6510F0FF0017
:102BC000F8D02046FFF7F8FC2046FFF789FDFDF717
:102BD000CBFA0146134840F82740F06AC4E90505DE
:102BE00000B18461F46294F83600B2791043B07198
:102BF0000A4814F8342F34306478835C23438354B8
:102C0000307A401C30720846FDF7B2FA0020BDE869
:102C1000F09FFDF7ADFA4220F9E700009400002094
:102C20003F000000C8360020054C00BFFDF79CFAAD
:102C3000E169491CE161FDF79BFAFFF752FDF5E7F9
:102C400094000020144C02E02820FFF737FE607843
:102C50000028F9D0642160690025B0FBF1F06061C3
:102C600018B92570FF20FFF7DFFDFDF77DFAE16958
:102C7000C4E90615FDF77CFAD4E90510B0FBF1F0C4
:102C8000C0F164002070FFF759FD00F007F8142030
:102C9000FFF714FEE9E70000940000207CB50C4D1E
:102CA000002469462046FFF74BFD58B955F824002B
:102CB00040B1012806D0D0E9021201EB8201416443
:102CC00001998164641CE4B23F2CEAD97CBD000008
:102CD000C8360020D30707D0920705D50022002967
:102CE00002D004C0491EFAE770470000044A0029D8
:102CF000D16901D0014300E08143D16170470000F8
:102D000000100240044A0029116901D0014300E08B
:102D1000814311617047000000100240044A0029FD
:102D2000916901D0014300E0814391617047000047
:102D300000100240044A0029D16801D0014300E09C
:102D40008143D160704700000010024030B51F4938
:102D50004A6812F00C031E4A03D0042B01D0082B42
:102D600021D002604A680F231A4C03EA1212A35CB6
:102D70000268DA4042604B68072505EA1323E35CEA
:102D800022FA03F383604B6805EAD323E35CDA405D
:102D9000C2604968032303EA9131231F595CB2FBE7
:102DA000F1F1016130BD4A684B6802F470124FF0D6
:102DB000020413F4803F04EB924202D04B689B0361
:102DC00001D5054B00E0024B5A43CAE70010024010
:102DD00000127A008400002000093D0070B50B4C01
:102DE00005460221204600F01DF80028F9D02946AA
:102DF000204600F020F80121204600F013F80028BA
:102E0000F9D0204600F015F8C0B270BD0030014086
:102E10000029018802D041F0400101E021F0400189
:102E2000018070470246002012890A4200D001202A
:102E30007047808970478181704730B502884C881F
:102E400002F441530A88CD8822438C882C432243C4
:102E50000C8922434C8922438C892243CC8922430A
:102E60001A430280828B22F400628283098A0182E3
:102E700030BD7047214CE51E01261420FFF71EFDD2
:102E8000A878401E10F0FF00A87006D10520A87099
:102E9000287870B31AA000F0EFFF6878401E10F099
:102EA000FF006870E9D10A206870A078401CC3B2A6
:102EB000A3702078401CC2B22270E078401CC1B2DE
:102EC000E1706078401CC0B2607027797F1CFFB24F
:102ED00027711E2B00D92E70052A00D92E701E29AD
:102EE00000D92E70052800D92E70052FC5D92E7057
:102EF000C3E7FFE7FFF74AF8CFE70000170000201D
:102F0000B8B4CEBB0D0A000070B50446FDF715FC41
:102F100006462046FDF73EFC04460D463046FDF7CA
:102F2000FFFB00220A4BFDF76EFA22462B46FDF707
:102F30005DFC01D2304600E0701C064D0446A868D6
:102F4000844204D021460620FEF720FBAC6070BD11
:102F50000000E03F4800002070B5054D0446687849
:102F6000844204D021460420FEF734FB6C7070BD0F
:102F7000480000202DE9F04107460E461046FDF7B7
:102F800009FC00220D4BFDF7E5FAFDF7EAFB0C4CBE
:102F900005464FB1E068854204D029460120FEF77E
:102FA000F5FAE560BDE8F081A0788642FAD03146B6
:102FB0000220FEF7EBFAA670F4E70000000059408B
:102FC0004800002070B5FDF7E5FB0022074BFDF738
:102FD000C1FAFDF7C6FB064D04466868844204D07A
:102FE00021460520FEF7D2FA6C6070BD0000594002
:102FF0004800002070B50A4D0446287884420DD060
:10300000012C06D107480168491C016006490920C6
:10301000087021460320FEF7DDFA2C7070BD000019
:103020004800002044000020590000202DE9F84FFE
:103030000746984615460846FDF76DFB04462846A8
:10304000FDF769FB2146FDF7A0F97B49FDF76BF918
:103050007B4C8346DFF8E491A078DFF8E8A10025F7
:103060004FF48051032F0ED00126022F1AD04FF0BB
:1030700002084FF4007B012F7ED0002F7DD12078F5
:1030800002287BD0B7E02581012807D15046FEF702
:10309000A4FC80214846FEF7A0FCA570BDE8F84FCF
:1030A00000F058B925812670267138B95046FEF7D0
:1030B00092FC80214846FEF78EFCA6705946E068D7
:1030C000FDF7D2FB01D86078A8B15F49E068014400
:1030D000B1F5C00F02D2617801295BD05B4988420B
:1030E0004BDA6078002848D184F8035000F048F9A2
:1030F0004FF4807172E0E068FDF74CFBDFF850811F
:103100000F4605464246534BFDF724FA0B4602464E
:1031100028463946FDF718FAFDF780FB0746FDF70C
:1031200039FB8946054602464B464BA000F0A4FEFB
:103130005846FDF72FFB834642464D4B0091FDF765
:1031400009FA02460B4628464946FDF74FFB12D3C3
:103150005846484A484B0099FDF7FCF902460B4691
:1031600028464946FDF72AFB05D34B462A4643A08D
:10317000276200F081FE02E014E05BE033E0E670DD
:10318000667000F0E7F85046BDE8F84F4FF48071E4
:10319000FEF723BCC82108FB01F0FFF78FFBE570A9
:1031A0006570A3E72581257138B95046FEF713FCF9
:1031B00080214846FEF70FFCA670E57084F8008079
:1031C0003449206A884201DA334900E03349E06833
:1031D000FDF751F8206200F0D3F859465046BDE89B
:1031E000F84FFEF7F8BBE670257000F0B3F85946CB
:1031F0005046FEF7F2FB207801280AD184F80380BC
:103200006570257000F0A6F84FF480715046FEF707
:10321000E4FB208940F2DC51401C80B220818842CE
:1032200008D34FF47A602081A078012802D1FEF7FC
:1032300085F9A570BDE8F88F00401C4600100140DC
:103240001C000020000C0140000040BF0000204195
:103250007B14AE47E17AA43F53656E645F5072659C
:10326000737375726554656D703A25660D0A0000BA
:10327000E17AF03F0AD7A3703D0AEF3F53656E64D1
:103280005F507265737375726556616C75653A252A
:10329000660D0A000000A041000090400000404080
:1032A0000CB50021264801910091026842F4803259
:1032B00002604FF4A063026802F400320092019AA7
:1032C000521C0192009A12B9019A9A42F3D10268F3
:1032D000920333D5012100911A490A6842F0100285
:1032E0000A600A6822F003020A600A6842F00202D9
:1032F0000A604168416041684160416841F4806111
:103300004160416821F47C114160416841F4E81159
:103310004160016841F08071016001688901FCD55C
:10332000416821F003014160416841F002014160C0
:103330004168C1F381010229FAD10CBD00910CBD95
:10334000001002400020024001460120FDF714BD9C
:10335000FDF712BD10B5084C4FF480412046FEF732
:103360003CFB4FF400412046FEF737FBBDE8104020
:1033700040210248FEF731BB000C01400010014023
:1033800010B5084C4FF480412046FEF724FB4FF463
:1033900000412046FEF71FFBBDE8104040210248D7
:1033A000FEF719BB000C0140001001404FF0E02176
:1033B0000428086903D020F004000861704740F039
:1033C0000400FAE710B5FFF78BF8FFF7ABFABDE89A
:1033D0001040FFF791B800000F4810B5016841F0A8
:1033E0000101016041680D4A1140416001680C4AC9
:1033F00011400160016821F480210160416821F4DD
:10340000FE0141604FF41F018160FFF749FF05494C
:103410004FF00060086010BD001002400000FFF88F
:10342000FFFFF6FE08ED00E010B50A4C0121204632
:1034300000F051F800280CD0012000F0A3FC064A4F
:1034400020465188491C5180BDE81040012100F000
:1034500035B810BD000400407C0000207FB50C464C
:10346000054601210220FFF741FCADF80450ADF8FC
:1034700000400024104DADF80640ADF8024069460A
:10348000284600F03DF801221146284600F02FF8AA
:103490001D208DF80C008DF80D4003208DF80E00D6
:1034A00001208DF80F0003A8FEF752FF01212846E6
:1034B00000F007F87FBD000000040040C94301820E
:1034C00070470029018802D041F0010101E021F09C
:1034D00001010180704702460020138A92890B4245
:1034E00002EA010202D0002A00D001207047002A1F
:1034F000828901D00A4300E08A438281704700003C
:1035000030B502881B4B1C4C98420DD0A0420BD00A
:10351000B0F1804F08D0194DA84205D0184DA842EF
:1035200002D0184DA84203D122F070054A882A43E0
:10353000154DA84206D0154DA84203D022F440757F
:10354000CA882A4302808A8882850A88028598422E
:103550000AD0A04208D00E4A904205D00D4A9042AF
:1035600002D00D4A904201D1097A0186012181825F
:1035700030BD0000002C0140003401400004004038
:1035800000080040000C0040001000400014004003
:103590000040014000440140004801402DE9F84F3F
:1035A00080469B4615460846FDF7B5F80446284672
:1035B000FDF7B1F82146FCF7E8FE7D49FCF7B3FEC4
:1035C0007C490746884200DB0F467C4CDFF8E891D7
:1035D000DFF8ECA1A07800254FF48051B8F1030F7B
:1035E00010D00126B8F1020F1BD002274FF4007B48
:1035F000B8F1010F78D0B8F1000F76D12078022809
:1036000074D0B4E02581012807D15046FEF7E5F9D2
:1036100080214846FEF7E1F9A570BDE8F84FFFF7B5
:1036200099BE25812670267138B95046FEF7D3F928
:1036300080214846FEF7CFF9A6703946E068FDF7CD
:1036400013F901D86078A0B15E49E0680144B1F592
:10365000C00F02D26178012959D05B49884244DA0F
:103660006078002841D1E570FFF78AFE4FF4807141
:1036700070E0E068FDF78EF8DFF850918846054667
:103680004A46534BFCF766FF2A464346FCF75FFF6A
:10369000FDF7C4F88046FDF77DF88B4605460246E7
:1036A0005B464CA000F0E8FB3846FDF773F8074690
:1036B0004A464E4B0091FCF74DFF02460B4628460A
:1036C0005946FDF793F817D33846494A494B0099B4
:1036D000FCF740FF02460B4628465946FDF76EF8B8
:1036E0000AD32A465B4602E019E05EE037E042A0DA
:1036F000C4F8208000F0C0FBE6706670FFF72AFE79
:103700005046BDE8F84F4FF48071FEF766B9C82106
:103710000BFB01F0FFF7D2F8E5706570A4E7258197
:10372000257138B95046FEF756F980214846FEF714
:1037300052F9A670E57027703549206A884201DA8F
:10374000344900E03449E068FCF795FD2062FFF75A
:1037500017FE59465046BDE8F84FFEF73CB9E670F3
:103760002570FFF7F7FD59465046FEF736F92078E9
:10377000012809D1E77065702570FFF7EBFD4FF464
:1037800080715046FEF729F9208940F2DC51401C37
:1037900080B22081884208D34FF47A602081A078DB
:1037A000012802D1FDF7CAFEA570BDE8F88F000020
:1037B00000401C4600008C42001001401C0000200C
:1037C000000C0140000040BF000020417B14AE47C8
:1037D000E17AA43F53656E645F50726573737572CE
:1037E0006554656D703A25660D0A0000E17AF03F78
:1037F0000AD7A3703D0AEF3F53656E645F50726550
:10380000737375726556616C75653A25660D0A00AD
:103810000000A041000090400000404010B50A4C5C
:1038200040F22551204600F092F800280BD02046A7
:1038300000F01AF9054AC1B21078FF2803D2044BF0
:103840001954401C107010BD004C00405B0000205B
:10385000182D002070B5154C40F22551204600F07F
:1038600076F800280ED0204600F0FEF8C2B21048CC
:1038700001880B0406D44C044FF0000306D50A2A35
:1038800001D0038070BD41F400410DE00D2A09D044
:10389000C1F30D04074D491C89B22A550180C7297F
:1038A000EFD870BD41F48041018070BD0038014007
:1038B00076000020383100200029818902D041F4AF
:1038C000005101E021F4005181817047174910B582
:1038D00088420AD101218C032046FFF72BFA2046AB
:1038E000BDE810400021FFF725BA1149884202D1F6
:1038F00001214C0410E00F49884202D101218C04BF
:103900000AE00D49884202D10121CC0404E00B49B0
:1039100088420AD101210C052046FFF7F3F9204621
:10392000BDE810400021FFF7EDB910BD003801409F
:103930000044004000480040004C0040005000405F
:103940000246002012880A4200D00120704730B59C
:1039500001F01F0201240025C1F3421304FA02F210
:10396000012B0FD0022B0FD0838A4FEA1121008840
:10397000134204FA01F400EA040001D000B1012569
:10398000284630BD8389F0E7038AEEE710B5C1F31E
:10399000421301F01F040121A140012B07D0022B8B
:1039A00007D01430002A026805D00A4304E00C3026
:1039B000F8E71030F6E78A43026010BD30B50446E0
:1039C000008A85B00D464CF6FF710840E988014336
:1039D0002182A1894EF6F3100140A8882A8910435C
:1039E0006A890A431043A081A08A4FF6FF4108402C
:1039F000A9890143A1826846FFF7A8F919488442C2
:103A000001D1039800E00298A189090400EBC001EC
:103A100001EB0010296801D5490000E08900B0FBE6
:103A2000F1F06422B0FBF2F109010B096FF0180507
:103A30006B4300EB8300A3891D044FF0320306D5CE
:103A400003EBC000B0FBF2F000F0070005E003EB71
:103A50000010B0FBF2F000F00F000843208105B029
:103A600030BD0000003801408088C0F30800704776
:103A7000C1F3080181807047F0B5064687B0012187
:103A800044F20400FFF74AF94FF40070ADF810005B
:103A900003248DF8124018201D4F8DF8130004A93F
:103AA0003846FDF713FF3815ADF8100004258DF8E2
:103AB000135004A93846FDF709FF25208DF814009E
:103AC0008DF815408DF8165001208DF8170005A8C7
:103AD000FEF73EFC0020ADF80400ADF80600ADF89E
:103AE0000800ADF80C000C200A4CADF80A00009656
:103AF00069462046FFF762FF012240F22551204629
:103B0000FFF744FF01212046FFF7D6FE07B0F0BDC6
:103B1000000801400038014030B5044687B001215B
:103B20001020FFF7FBF80121C804FFF7DFF84FF47E
:103B30008060ADF8100018208DF813000320204D90
:103B40008DF8120004A92846FDF7C0FEE814ADF870
:103B5000100004208DF8130004A92846FDF7B6FED6
:103B600034208DF8140002208DF815008DF8160011
:103B700001208DF8170005A8FEF7EAFB114D284635
:103B8000FFF7A4FE0020ADF80400ADF80600ADF884
:103B90000800ADF80C000C20ADF80A00009469464E
:103BA0002846FFF70BFF012240F225512846FFF778
:103BB000EDFE01212846FFF77FFE07B030BD000073
:103BC00000100140004C00402DE9F041594DC0B0BB
:103BD000687800283CD04FF0000885F80180FF216C
:103BE000684600F0B5F804469DF80000A5282FD1DE
:103BF000A01EC1B26846FEF733F80146C0F307279E
:103C0000C6B24DA000F038F90DEB0400694610F87B
:103C1000022CBA421CD110F8010CB04218D19DF808
:103C2000012001264748484C0C2A11D2DFE802F057
:103C30001006131E2A35404B565B657CDDF80210DA
:103C40009DF8052009BA21F0FF011143016026709B
:103C500040B0BDE8F081DDF802109DF8052009BAFA
:103C600021F0FF0111434160022009E0DDF802105C
:103C70009DF8052009BA21F0FF011143816003205E
:103C80002070E5E7DDF802109DF8052009BA21F063
:103C9000FF011143C1600420F2E7DDF802109DF836
:103CA000052009BA21F0FF01114301820520E7E751
:103CB000DDF802109DF8052009BA21F0FF0111433B
:103CC00041610620DCE7DDF802109DF8052009BA05
:103CD00021F0FF01114381610720D1E79DF8021017
:103CE00001770820CCE713489DF80220401DC91C2D
:103CF000FCF7A6FAAE700B20C2E79DF802600D48F3
:103D000032460D30C91CFCF79BFA0A493246491D60
:103D100001F10800FCF7A0FA20B985F802800BA099
:103D200000F0AAF80A20ABE79DF8021041770C20BA
:103D3000A6E700005B0000206372633A25640D0A69
:103D400000000000F82C0020590000206F6B0000DC
:103D500030B50A4B02461878814200D9014600204E
:103D6000074C04E0255C401C02F8015BC0B28842AD
:103D7000F8D300201870084630BD00005B0000201A
:103D8000182D00200B4910B50A78002382B1CC7899
:103D9000944202D0CA700B7110BD0A79052AFBD279
:103DA0001044C0B208710528F6D30120487010BD38
:103DB000CB7010BD5B0000202DE9F0410E46074698
:103DC0000024094D0BE0395D2846FFF751FE8021A4
:103DD0002846FFF7B5FD0028F9D0641CE4B2B442D0
:103DE000F1D3BDE8F0810000004C0040FEE7000088
:103DF000044C00250220FEF761FD6570FFF7E4FE2C
:103E0000F8E7000017000020134D144E144FDFF8A0
:103E10005480DFF85490DFF854A0DFF854B0002449
:103E20000220FEF74BFD2C71307F3A68D8F8001065
:103E3000FFF7A0F8D9F80000FFF7C4F8DAF800009F
:103E4000FFF762F89BF80000FFF7D4F80948007804
:103E5000FFF782F8E4E7000017000020F82C0020AC
:103E600028000020440000203C00002040000020EA
:103E70001F000020200000200FB4054B10B503A93F
:103E8000044A029800F0DAF810BC5DF814FB000058
:103E9000AD4800087800002002E008C8121F08C1E1
:103EA000002AFAD170477047002001E001C1121FBB
:103EB000002AFBD1704700002DE9FF5F82B000218E
:103EC000DDE90430020DDDF840B0034318D044F6BC
:103ED0001050A2F2FF3242431514119801281FD04E
:103EE000A5EB0B00401C5FEA000A4FF000064E4FA6
:103EF000DFF83891B046504615D5CAF1000413E0FA
:103F0000119801244AA3012801D16FEA0B010298FC
:103F1000119AC0E90031C0E9024206B0BDE8F09F45
:103F2000CBF10000DFE704460021404A491842EB8C
:103F30000450CDE9001012E0E00707D032463B46BE
:103F400040464946FCF706FB8046894632463B46DA
:103F500010461946FCF7FEFA06460F466410002C80
:103F6000EAD1DDE90401DDE90023BAF1000F06DA48
:103F7000FCF7F0FA42464B46FCF7ECFA05E0FCF79A
:103F80005BFB42464B46FCF757FB04460E460022BD
:103F9000284BFCF72BFC03D84FF0FF30014607E01D
:103FA0000022254B20463146FCF72DFAFCF772FD26
:103FB000102409E0002C0ADB0A220023FCF774FC21
:103FC000039B30321A55641E50EA0102F2D1641C80
:103FD000039AC4F111031444119A012A03D0012257
:103FE00008430DD10AE0084304D000204FF0110B24
:103FF000119072E7A3EB0B056D1E0DE05B4504DD30
:104000004FF0000205F1010504E003DA4FF0000271
:10401000A5F10105002AECD002981199C0E90231FE
:10402000C0E9004579E70000000014400000F03FBF
:10403000300000000000F0430000E03F2DE9FF4F9A
:1040400095B09B468946064600250FE2252877D184
:1040500000242746F84A0121059400E0044316F89D
:10406000013F203B01FA03F01042F7D130782A28B3
:1040700011D06FF02F033078A0F13002092A16D842
:10408000059A44F0020402EB820203EB4202104460
:10409000761C0590EFE759F8042B0592002A03DA05
:1040A000504244F40054059044F00204761C3078E9
:1040B0002E2816D116F8010F44F004042A280DD03A
:1040C0006FF02F023078A0F13003092B09D807EBED
:1040D000870302EB4303C718761CF3E759F8047B08
:1040E000761C30786C280FD006DC4C2817D0682856
:1040F0000DD06A2814D104E0742810D07A280FD18A
:104100000DE044F400140AE044F4801401E044F4A7
:1041100040147278824202D104F58014761C761C19
:10412000307866280BD013DC582877D009DC0028BB
:1041300075D04528F6D04628F4D047281AD19DE1FD
:1041400018E0632835D0642879D0652812D195E12C
:10415000702873D008DC6728F1D069286FD06E28EA
:104160000DD06F2806D1B5E073282CD0752875D0F6
:10417000782874D05A46179990476D1C75E1C4F39E
:104180000250022809D003280DD0D9F800100428C5
:104190000DD00D6009F1040967E1D9F80010EA17A4
:1041A000C1E90052F6E7D9F800100D80F2E70D7072
:1041B000F0E719F8041B8DF8001000208DF80100BD
:1041C000EA46012003E059F804AB4FF0FF306107E5
:1041D0004FF0000102D40DE008F101018846B94218
:1041E0000FDA8045F8DB1AF808100029F4D108E04E
:1041F00008F1010188468142FADB1AF8081000290B
:10420000F6D105985B46A0EB080721463846179A79
:1042100000F094FA284400EB080507E04DE029E19E
:104220000DE01AF8010B5A4617999047B8F10108AA
:10423000F7D25B4621463846179A13E142E00A223C
:104240000092C4F302524FF0000A022A08D059F833
:1042500004CB032A4FEAEC710AD00DE029E02AE0F2
:1042600009F1070121F00702F2E802C1914609E0D5
:104270000FFA8CFC4FEAEC71042A03D14FFA8CFC44
:104280004FEAEC71002907DA0A460021DCF1000C44
:1042900061EB02012D2202E0220504D52B228DF8CC
:1042A0000420012203E0E20701D02022F7E7904634
:1042B00059E00A2102E010220DE010214FF0000A1F
:1042C00000910BE010224FF0000A44F0040408278C
:1042D000009203E008224FF0000A0092C4F3025259
:1042E000022A05D059F804CB0021032A08D009E09E
:1042F00009F1070121F00702F2E802C1914605E049
:104300001FFA8CFC042A01D10CF0FF0C4FF00008BE
:10431000220728D5702806D0009B83F0100353EAAB
:104320000A0305D00EE040228DF80420012208E0A7
:104330005CEA010206D030228DF804208DF80500D9
:1043400002229046009B83F0080353EA0A030AD135
:104350005CEA010201D1620705D530228DF8042004
:104360004FF001087F1E582804D034A003900EA8F7
:1043700002900DE036A0F9E753466046009AFCF73C
:1043800093FA84460398825C0298401E0290027061
:104390005CEA0100F0D1029806A9081A00F1200A8F
:1043A000600702D524F4803400E00127574502DD80
:1043B000A7EB0A0000E0002000EB0A01009005983E
:1043C0004144401A0590E00306D45B462146179A03
:1043D000059800F0B3F90544002706E001A85A4605
:1043E000C05D179990476D1C7F1C4745F6DBE003C5
:1043F0000CD55B462146179A059800F09FF90544B5
:1044000004E030205A46179990476D1C0099481EC9
:1044100000900029F5DC08E0029802995A460078DD
:10442000491C0291179990476D1CBAF10001AAF13D
:10443000010AF1DC65E10000092801003031323366
:1044400034353637383961626364656600000000D0
:1044500030313233343536373839414243444546BA
:104460000000000000F058F90544761C3078002860
:104470007FF4ECAD19B02846BDE8F08F620700D498
:10448000062709F1070222F0070CFCE80223E146A7
:1044900003F000485FEA080C02D00FF2702C0DE028
:1044A0005FEA045C02D50FF2682C07E05FEAC47C87
:1044B00002D00FF2602C01E0AFF2700C4FF0FF3829
:1044C00023F00043CDF850C065280CD006DC452809
:1044D00009D046281DD047283DD13DE0662818D098
:1044E00067287ED138E00021112F01DB112000E088
:1044F000781CCDE9000106A90EA8FFF7DDFCDDE977
:104500000F010E9A03910021009207F1010A049114
:104510004DE04FF000400097CDE9011006A90EA82C
:10452000FFF7CAFCDDE90F0203920E9B11990022EE
:10453000DDF80CA00093049211B9791C00EB010A7C
:10454000B7EB0A0004D4C0F1FF3007F1010A049070
:10455000AAEB0700019044E0012F00DA01270021B7
:10456000112F01DD112000E03846CDE9000106A938
:104570000EA8FFF7A1FCDDE90F010E9A03910021BF
:1045800004910092BA4621070CD40399514500DAF0
:104590008A46BAF1010F05DD009AAAF10101515CCA
:1045A000302908D0B84202DA10F1040F06DA0121EE
:1045B000CDE9011015E0AAF10101E9E7002805DCC9
:1045C000049901440491AAEB000102E0411C514509
:1045D00000DD8A460499401A401C01904FF00040CB
:1045E0000290200704D40198504501DBCDF80480E7
:1045F00000208DF84F0002980DF14F07B0F1004FE9
:1046000025D02B200E9002984FF0020800280CDADB
:10461000404202902D200E9007E00A210298FCF7FC
:104620002DF93031029007F8011DB8F10001A8F111
:104630000108F2DC02980028EFD1791E0E9808706C
:10464000307800F0200040F0450007F8020D12A875
:10465000C01B00F107081498007800B1012000EB9E
:104660000A01019801EBE07105984144401A401E8F
:104670000590E00306D45B462146179A059800F0A2
:104680005DF805441498007818B15A461799904778
:104690006D1CE00324D55B462146179A059800F06F
:1046A0004DF805441CE00498002807DBDDE9030110
:1046B000884203DD0098405C179901E0179930208B
:1046C0005A469047049805F10105401C0490019852
:1046D000401E019004D12E205A46179990476D1C18
:1046E000BAF10001AAF1010ADDDC05E017F8010BBF
:1046F0005A46179990476D1CB8F10001A8F10108BE
:10470000F4DC5B462146179A0598ABE62D000000C5
:104710002B000000200000002DE9F0410446002598
:104720001E461746880404D405E039462020B047C9
:104730006D1C641EF9D52846BDE8F0812DE9F041D5
:10474000044600251E469046C80301D5302700E0E8
:104750002027880404D505E041463846B0476D1C43
:10476000641EF9D52846BDE8F081000010B56FF051
:104770000400FEF71BFE0D480D4A01680D48B1FB11
:10478000F2F3B1FBF2F141F288325143037005229A
:1047900042804FF0E020026942F002020261416172
:1047A000016941F00101016110BD0000000000201D
:1047B00000127A007200002070B504460B480078A1
:1047C00001280CD10A4D6888844203D3B4FBF0F071
:1047D000FEF774F86888B4FBF0F100FB11444FF465
:1047E0007A706043BDE8704000F004B89B00002080
:1047F0007200002070B54FF0E0240022656909497D
:10480000A36909784843A1699942FCD002D2A3EB7D
:10481000010302E0A5EB010633441A440B46824231
:10482000F1D370BD72000020F0B50025032B02DA31
:104830000323002601E0002605E001EB86046468FE
:1048400041F82640761C5C1EA642F6DB01EB83068F
:1048500046F8042C002204E051F8226040F822605F
:10486000521C9A42F8DB002212E000219F1A0CE051
:1048700000EB810E50F82160DEF804C0664503D9D4
:1048800040F821C0CEF80460491C8F42F0DC521C75
:10489000A242EADB012103E050F82120491C154423
:1048A000A142F9DB9B1EB5FBF3F0F0BD04490A8879
:1048B0005206FCD5024AC1B2121D11807047000099
:1048C000003801402DE9F84F01213C20FEF726FA7F
:1048D00001214F48FDF74CF801210846FEF71EFA6A
:1048E00001214C48FDF744F88020ADF80000102469
:1048F000DFF824A18DF8034003258DF802506946A6
:104900005046FCF7E3FF2601ADF800608DF8034048
:104910008DF8025069465046FCF7D8FF4FF40078F6
:10492000ADF800808DF803408DF80250694650467E
:10493000FCF7CCFF80215046FDF74FF8314650463A
:10494000FDF74BF841465046FDF747F80120ADF81A
:104950000000DFF8C8908DF803408DF802506946DA
:104960004846FCF7B3FF0220ADF800008DF8034085
:104970008DF8025069464846FCF7A8FFADF8006084
:1049800048278DF8037069462548FCF79FFFADF86E
:1049900000808DF8037069464846FCF797FFADF834
:1049A00000608DF8037069464846FCF78FFF4FF4AE
:1049B0007040ADF800008DF803408DF80250694654
:1049C0005046FCF783FFC020ADF800008DF803408F
:1049D0008DF8025069464846FCF778FF21025046A0
:1049E000FCF7FBFF61025046FCF7F7FFA1025046BF
:1049F000FCF7F3FFE1025046FCF7EFFF4021484689
:104A0000FCF7EBFF80214846FCF7E7FFBDE8F88F95
:104A10000004300000023000000C01400010014092
:104A20000008014010B5FFF7A1FEFDF78DFCFFF770
:104A300049FF4FF4E1342046FFF71EF82046FFF708
:104A40006BF847214FF47A70FEF708FDFCF754FE2F
:104A50000C20FCF7F9F805210720FEF779FC052169
:104A60000820FEF775FCFCF7A1F9FDF77BFBFDF7CD
:104A70004BF9FDF78DFA07A0FFF7FEF9FDF7A4FC4F
:104A80000A23074A00210748FDF798FDFDF762FD5C
:104A9000002010BDE9F3C5B5BFC6BCBC0D0A0000BF
:104AA00084050020A94A000810B5FDF76BFDFBF74F
:104AB0005BFB04460923154A00211548FDF77EFDDE
:104AC0000323144A00211448FDF778FD0523134AF7
:104AD00000211348FDF772FD0723124A00211248F6
:104AE000FDF76CFD0223114A00211148FDF766FD18
:104AF0000623104A00211048FDF760FD0A20FDF74B
:104B000093FE2046BDE81040FBF732BB340A00207C
:104B1000752E000844280020E90A000844180020E7
:104B2000F13D0008E40E002089180008F42C002054
:104B3000D514000894130020093E000800C18140EC
:104B400001C0804101C0804100C1814001C080415D
:104B500000C1814000C1814001C0804101C080414D
:104B600000C1814000C1814001C0804100C181403D
:104B700001C0804101C0804100C1814001C080412D
:104B800000C1814000C1814001C0804100C181401D
:104B900001C0804101C0804100C1814000C181400D
:104BA00001C0804101C0804100C1814001C08041FD
:104BB00000C1814000C1814001C0804101C08041ED
:104BC00000C1814000C1814001C0804100C18140DD
:104BD00001C0804101C0804100C1814000C18140CD
:104BE00001C0804101C0804100C1814001C08041BD
:104BF00000C1814000C1814001C0804100C18140AD
:104C000001C0804101C0804100C1814001C080419C
:104C100000C1814000C1814001C0804101C080418C
:104C200000C1814000C1814001C0804100C181407C
:104C300001C0804101C0804100C1814000C0C1016C
:104C4000C30302C2C60607C705C5C404CC0C0DCDFC
:104C50000FCFCE0E0ACACB0BC90908C8D81819D96C
:104C60001BDBDA1A1EDEDF1FDD1D1CDC14D4D5159C
:104C7000D71716D6D21213D311D1D010F03031F18C
:104C800033F3F23236F6F737F53534F43CFCFD3DBC
:104C9000FF3F3EFEFA3A3BFB39F9F83828E8E929AC
:104CA000EB2B2AEAEE2E2FEF2DEDEC2CE42425E55C
:104CB00027E7E62622E2E323E12120E0A06061A1CC
:104CC00063A3A26266A6A767A56564A46CACAD6D7C
:104CD000AF6F6EAEAA6A6BAB69A9A86878B8B979EC
:104CE000BB7B7ABABE7E7FBF7DBDBC7CB47475B51C
:104CF00077B7B67672B2B373B17170B0509091510C
:104D00009353529296565797559594549C5C5D9D3B
:104D10005F9F9E5E5A9A9B5B99595898884849892B
:104D20004B8B8A4A4E8E8F4F8D4D4C8C44848545DB
:104D300087474686824243834181804000000100CC
:104D40000200010003000100020001000400010054
:104D50000200010003000100020001000500010043
:104D60000200010003000100020001000400010034
:104D70000200010003000100020001000600010022
:104D80000200010003000100020001000400010014
:104D90000200010003000100020001000500010003
:104DA00002000100030001000200010004000100F4
:104DB00002000100030001000200010007000100E1
:104DC00002000100030001000200010004000100D4
:104DD00002000100030001000200010005000100C3
:104DE00002000100030001000200010004000100B4
:104DF00002000100030001000200010006000100A2
:104E00000200010003000100020001000400010093
:104E10000200010003000100020001000500010082
:104E20000200010003000100020001000400010073
:104E30000200010003000100020001005C4E0008B6
:104E400000000020D8000000983E0008344F000801
:104E5000D8000020A83F0000A83E000800A24A0495
:104E6000000000000000000001020304060708091A
:104E7000000A050000000000000000000000000023
:104E80000000000000000000000000000000000022
:104E90000000000000000000000000000000000012
:104EA0000000000000000000000000000000000002
:104EB0000000000001000000000000003132333427
:104EC0003536000031323334353600000000000042
:104ED00000000000000000000000000002040608BE
:104EE0000000000001020304010203040607080990
:104EF00000000000000000000000000000000000B2
:104F000000000000000000000000000000000000A1
:104F10000000000000000000000000000000000091
:104F20000000000000000000000000000000000081
:044F3000000000007D
:0400000508000131BD
:00000001FF
